{
  "contractName": "Boardroom",
  "abi": [
    {
      "inputs": [
        {
          "internalType": "contract IERC20",
          "name": "_cash",
          "type": "address"
        },
        {
          "internalType": "contract IERC20",
          "name": "_share",
          "type": "address"
        }
      ],
      "stateMutability": "nonpayable",
      "type": "constructor"
    },
    {
      "anonymous": false,
      "inputs": [
        {
          "indexed": true,
          "internalType": "address",
          "name": "previousOperator",
          "type": "address"
        },
        {
          "indexed": true,
          "internalType": "address",
          "name": "newOperator",
          "type": "address"
        }
      ],
      "name": "OperatorTransferred",
      "type": "event"
    },
    {
      "anonymous": false,
      "inputs": [
        {
          "indexed": true,
          "internalType": "address",
          "name": "previousOwner",
          "type": "address"
        },
        {
          "indexed": true,
          "internalType": "address",
          "name": "newOwner",
          "type": "address"
        }
      ],
      "name": "OwnershipTransferred",
      "type": "event"
    },
    {
      "anonymous": false,
      "inputs": [
        {
          "indexed": true,
          "internalType": "address",
          "name": "user",
          "type": "address"
        },
        {
          "indexed": false,
          "internalType": "uint256",
          "name": "reward",
          "type": "uint256"
        }
      ],
      "name": "RewardAdded",
      "type": "event"
    },
    {
      "anonymous": false,
      "inputs": [
        {
          "indexed": true,
          "internalType": "address",
          "name": "user",
          "type": "address"
        },
        {
          "indexed": false,
          "internalType": "uint256",
          "name": "reward",
          "type": "uint256"
        }
      ],
      "name": "RewardPaid",
      "type": "event"
    },
    {
      "anonymous": false,
      "inputs": [
        {
          "indexed": true,
          "internalType": "address",
          "name": "user",
          "type": "address"
        },
        {
          "indexed": false,
          "internalType": "uint256",
          "name": "amount",
          "type": "uint256"
        }
      ],
      "name": "Staked",
      "type": "event"
    },
    {
      "anonymous": false,
      "inputs": [
        {
          "indexed": true,
          "internalType": "address",
          "name": "user",
          "type": "address"
        },
        {
          "indexed": false,
          "internalType": "uint256",
          "name": "amount",
          "type": "uint256"
        }
      ],
      "name": "Withdrawn",
      "type": "event"
    },
    {
      "inputs": [
        {
          "internalType": "address",
          "name": "account",
          "type": "address"
        }
      ],
      "name": "balanceOf",
      "outputs": [
        {
          "internalType": "uint256",
          "name": "",
          "type": "uint256"
        }
      ],
      "stateMutability": "view",
      "type": "function",
      "constant": true
    },
    {
      "inputs": [],
      "name": "isOperator",
      "outputs": [
        {
          "internalType": "bool",
          "name": "",
          "type": "bool"
        }
      ],
      "stateMutability": "view",
      "type": "function",
      "constant": true
    },
    {
      "inputs": [],
      "name": "operator",
      "outputs": [
        {
          "internalType": "address",
          "name": "",
          "type": "address"
        }
      ],
      "stateMutability": "view",
      "type": "function",
      "constant": true
    },
    {
      "inputs": [],
      "name": "owner",
      "outputs": [
        {
          "internalType": "address",
          "name": "",
          "type": "address"
        }
      ],
      "stateMutability": "view",
      "type": "function",
      "constant": true
    },
    {
      "inputs": [],
      "name": "renounceOwnership",
      "outputs": [],
      "stateMutability": "nonpayable",
      "type": "function"
    },
    {
      "inputs": [],
      "name": "share",
      "outputs": [
        {
          "internalType": "contract IERC20",
          "name": "",
          "type": "address"
        }
      ],
      "stateMutability": "view",
      "type": "function",
      "constant": true
    },
    {
      "inputs": [],
      "name": "totalSupply",
      "outputs": [
        {
          "internalType": "uint256",
          "name": "",
          "type": "uint256"
        }
      ],
      "stateMutability": "view",
      "type": "function",
      "constant": true
    },
    {
      "inputs": [
        {
          "internalType": "address",
          "name": "newOperator_",
          "type": "address"
        }
      ],
      "name": "transferOperator",
      "outputs": [],
      "stateMutability": "nonpayable",
      "type": "function"
    },
    {
      "inputs": [
        {
          "internalType": "address",
          "name": "newOwner",
          "type": "address"
        }
      ],
      "name": "transferOwnership",
      "outputs": [],
      "stateMutability": "nonpayable",
      "type": "function"
    },
    {
      "inputs": [],
      "name": "latestSnapshotIndex",
      "outputs": [
        {
          "internalType": "uint256",
          "name": "",
          "type": "uint256"
        }
      ],
      "stateMutability": "view",
      "type": "function",
      "constant": true
    },
    {
      "inputs": [
        {
          "internalType": "address",
          "name": "director",
          "type": "address"
        }
      ],
      "name": "getLastSnapshotIndexOf",
      "outputs": [
        {
          "internalType": "uint256",
          "name": "",
          "type": "uint256"
        }
      ],
      "stateMutability": "view",
      "type": "function",
      "constant": true
    },
    {
      "inputs": [],
      "name": "rewardPerShare",
      "outputs": [
        {
          "internalType": "uint256",
          "name": "",
          "type": "uint256"
        }
      ],
      "stateMutability": "view",
      "type": "function",
      "constant": true
    },
    {
      "inputs": [
        {
          "internalType": "address",
          "name": "director",
          "type": "address"
        }
      ],
      "name": "earned",
      "outputs": [
        {
          "internalType": "uint256",
          "name": "",
          "type": "uint256"
        }
      ],
      "stateMutability": "view",
      "type": "function",
      "constant": true
    },
    {
      "inputs": [
        {
          "internalType": "uint256",
          "name": "amount",
          "type": "uint256"
        }
      ],
      "name": "stake",
      "outputs": [],
      "stateMutability": "nonpayable",
      "type": "function"
    },
    {
      "inputs": [
        {
          "internalType": "uint256",
          "name": "amount",
          "type": "uint256"
        }
      ],
      "name": "withdraw",
      "outputs": [],
      "stateMutability": "nonpayable",
      "type": "function"
    },
    {
      "inputs": [],
      "name": "exit",
      "outputs": [],
      "stateMutability": "nonpayable",
      "type": "function"
    },
    {
      "inputs": [],
      "name": "claimReward",
      "outputs": [],
      "stateMutability": "nonpayable",
      "type": "function"
    },
    {
      "inputs": [
        {
          "internalType": "uint256",
          "name": "amount",
          "type": "uint256"
        }
      ],
      "name": "allocateSeigniorage",
      "outputs": [],
      "stateMutability": "nonpayable",
      "type": "function"
    }
  ],
  "bytecode": "0x60806040523480156200001157600080fd5b5060405162002bb138038062002bb1833981810160405260408110156200003757600080fd5b810190808051906020019092919080519060200190929190505050600062000064620002cf60201b60201c565b905080600460006101000a81548173ffffffffffffffffffffffffffffffffffffffff021916908373ffffffffffffffffffffffffffffffffffffffff1602179055508073ffffffffffffffffffffffffffffffffffffffff16600073ffffffffffffffffffffffffffffffffffffffff167f8be0079c531659141344cd1fd0a4f28419497f9722a3daafe3b4186f6b6457e060405160405180910390a35062000113620002cf60201b60201c565b600560006101000a81548173ffffffffffffffffffffffffffffffffffffffff021916908373ffffffffffffffffffffffffffffffffffffffff160217905550600560009054906101000a900473ffffffffffffffffffffffffffffffffffffffff1673ffffffffffffffffffffffffffffffffffffffff16600073ffffffffffffffffffffffffffffffffffffffff167f74da04524d50c64947f5dd5381ef1a4dca5cba8ed1d816243f9e48aa0b5617ed60405160405180910390a381600660006101000a81548173ffffffffffffffffffffffffffffffffffffffff021916908373ffffffffffffffffffffffffffffffffffffffff160217905550806000806101000a81548173ffffffffffffffffffffffffffffffffffffffff021916908373ffffffffffffffffffffffffffffffffffffffff1602179055506200025b620002d7565b6040518060600160405280438152602001600081526020016000815250905060088190806001815401808255809150506001900390600052602060002090600302016000909190919091506000820151816000015560208201518160010155604082015181600201555050505050620002f8565b600033905090565b60405180606001604052806000815260200160008152602001600081525090565b6128a980620003086000396000f3fe608060405234801561001057600080fd5b50600436106101155760003560e01c8063714b4658116100a2578063a694fc3a11610071578063a694fc3a146103ae578063a8d5fd65146103dc578063b88a802f14610410578063e9fad8ee1461041a578063f2fde38b1461042457610115565b8063714b4658146102ea578063715018a6146103425780638da5cb5b1461034c57806397ffe1d71461038057610115565b80633f9e3f04116100e95780633f9e3f04146102025780634456eda214610220578063446a2ec814610240578063570ca7351461025e57806370a082311461029257610115565b80628cc2621461011a57806318160ddd1461017257806329605e77146101905780632e1a7d4d146101d4575b600080fd5b61015c6004803603602081101561013057600080fd5b81019080803573ffffffffffffffffffffffffffffffffffffffff169060200190929190505050610468565b6040518082815260200191505060405180910390f35b61017a61052e565b6040518082815260200191505060405180910390f35b6101d2600480360360208110156101a657600080fd5b81019080803573ffffffffffffffffffffffffffffffffffffffff169060200190929190505050610538565b005b610200600480360360208110156101ea57600080fd5b810190808035906020019092919050505061060e565b005b61020a6109e7565b6040518082815260200191505060405180910390f35b610228610a07565b60405180821515815260200191505060405180910390f35b610248610a66565b6040518082815260200191505060405180910390f35b610266610a79565b604051808273ffffffffffffffffffffffffffffffffffffffff16815260200191505060405180910390f35b6102d4600480360360208110156102a857600080fd5b81019080803573ffffffffffffffffffffffffffffffffffffffff169060200190929190505050610aa3565b6040518082815260200191505060405180910390f35b61032c6004803603602081101561030057600080fd5b81019080803573ffffffffffffffffffffffffffffffffffffffff169060200190929190505050610aec565b6040518082815260200191505060405180910390f35b61034a610b38565b005b610354610cc3565b604051808273ffffffffffffffffffffffffffffffffffffffff16815260200191505060405180910390f35b6103ac6004803603602081101561039657600080fd5b8101908080359060200190929190505050610ced565b005b6103da600480360360208110156103c457600080fd5b8101908080359060200190929190505050611165565b005b6103e46114dd565b604051808273ffffffffffffffffffffffffffffffffffffffff16815260200191505060405180910390f35b610418611501565b005b610422611752565b005b6104666004803603602081101561043a57600080fd5b81019080803573ffffffffffffffffffffffffffffffffffffffff16906020019092919050505061176d565b005b60008061047361197d565b6040015190506000610484846119d5565b604001519050610525600760008673ffffffffffffffffffffffffffffffffffffffff1673ffffffffffffffffffffffffffffffffffffffff16815260200190815260200160002060010154610517670de0b6b3a76400006105096104f28688611a3090919063ffffffff16565b6104fb8a610aa3565b611a7a90919063ffffffff16565b611b0090919063ffffffff16565b611b4a90919063ffffffff16565b92505050919050565b6000600154905090565b610540611bd2565b73ffffffffffffffffffffffffffffffffffffffff16600460009054906101000a900473ffffffffffffffffffffffffffffffffffffffff1673ffffffffffffffffffffffffffffffffffffffff1614610602576040517f08c379a00000000000000000000000000000000000000000000000000000000081526004018080602001828103825260208152602001807f4f776e61626c653a2063616c6c6572206973206e6f7420746865206f776e657281525060200191505060405180910390fd5b61060b81611bda565b50565b610616611cff565b1561066c576040517f08c379a00000000000000000000000000000000000000000000000000000000081526004018080602001828103825260268152602001806128186026913960400191505060405180910390fd5b610674611d64565b156106ca576040517f08c379a00000000000000000000000000000000000000000000000000000000081526004018080602001828103825260268152602001806128186026913960400191505060405180910390fd5b60006106d533610aa3565b1161072b576040517f08c379a00000000000000000000000000000000000000000000000000000000081526004018080602001828103825260268152602001806127c86026913960400191505060405180910390fd5b33600073ffffffffffffffffffffffffffffffffffffffff168173ffffffffffffffffffffffffffffffffffffffff16146108445761076861269e565b600760008373ffffffffffffffffffffffffffffffffffffffff1673ffffffffffffffffffffffffffffffffffffffff1681526020019081526020016000206040518060400160405290816000820154815260200160018201548152505090506107d182610468565b8160200181815250506107e26109e7565b81600001818152505080600760008473ffffffffffffffffffffffffffffffffffffffff1673ffffffffffffffffffffffffffffffffffffffff1681526020019081526020016000206000820151816000015560208201518160010155905050505b600082116108ba576040517f08c379a000000000000000000000000000000000000000000000000000000000815260040180806020018281038252601c8152602001807f426f617264726f6f6d3a2043616e6e6f7420776974686472617720300000000081525060200191505060405180910390fd5b6108c382611dc9565b3373ffffffffffffffffffffffffffffffffffffffff167f7084f5476618d8e60b11ef0d7d3f06914655adb8793e28ff7f018d4c76d505d5836040518082815260200191505060405180910390a25060016003600043815260200190815260200160002060003273ffffffffffffffffffffffffffffffffffffffff1673ffffffffffffffffffffffffffffffffffffffff16815260200190815260200160002060006101000a81548160ff02191690831515021790555060016003600043815260200190815260200160002060003373ffffffffffffffffffffffffffffffffffffffff1673ffffffffffffffffffffffffffffffffffffffff16815260200190815260200160002060006101000a81548160ff02191690831515021790555050565b6000610a026001600880549050611a3090919063ffffffff16565b905090565b6000600560009054906101000a900473ffffffffffffffffffffffffffffffffffffffff1673ffffffffffffffffffffffffffffffffffffffff16610a4a611bd2565b73ffffffffffffffffffffffffffffffffffffffff1614905090565b6000610a7061197d565b60400151905090565b6000600560009054906101000a900473ffffffffffffffffffffffffffffffffffffffff16905090565b6000600260008373ffffffffffffffffffffffffffffffffffffffff1673ffffffffffffffffffffffffffffffffffffffff168152602001908152602001600020549050919050565b6000600760008373ffffffffffffffffffffffffffffffffffffffff1673ffffffffffffffffffffffffffffffffffffffff168152602001908152602001600020600001549050919050565b610b40611bd2565b73ffffffffffffffffffffffffffffffffffffffff16600460009054906101000a900473ffffffffffffffffffffffffffffffffffffffff1673ffffffffffffffffffffffffffffffffffffffff1614610c02576040517f08c379a00000000000000000000000000000000000000000000000000000000081526004018080602001828103825260208152602001807f4f776e61626c653a2063616c6c6572206973206e6f7420746865206f776e657281525060200191505060405180910390fd5b600073ffffffffffffffffffffffffffffffffffffffff16600460009054906101000a900473ffffffffffffffffffffffffffffffffffffffff1673ffffffffffffffffffffffffffffffffffffffff167f8be0079c531659141344cd1fd0a4f28419497f9722a3daafe3b4186f6b6457e060405160405180910390a36000600460006101000a81548173ffffffffffffffffffffffffffffffffffffffff021916908373ffffffffffffffffffffffffffffffffffffffff160217905550565b6000600460009054906101000a900473ffffffffffffffffffffffffffffffffffffffff16905090565b610cf5611cff565b15610d4b576040517f08c379a00000000000000000000000000000000000000000000000000000000081526004018080602001828103825260268152602001806128186026913960400191505060405180910390fd5b610d53611d64565b15610da9576040517f08c379a00000000000000000000000000000000000000000000000000000000081526004018080602001828103825260268152602001806128186026913960400191505060405180910390fd5b3373ffffffffffffffffffffffffffffffffffffffff16600560009054906101000a900473ffffffffffffffffffffffffffffffffffffffff1673ffffffffffffffffffffffffffffffffffffffff1614610e4f576040517f08c379a00000000000000000000000000000000000000000000000000000000081526004018080602001828103825260248152602001806127a46024913960400191505060405180910390fd5b60008111610ec5576040517f08c379a000000000000000000000000000000000000000000000000000000000815260040180806020018281038252601c8152602001807f426f617264726f6f6d3a2043616e6e6f7420616c6c6f6361746520300000000081525060200191505060405180910390fd5b6000610ecf61052e565b11610f25576040517f08c379a00000000000000000000000000000000000000000000000000000000081526004018080602001828103825260308152602001806127536030913960400191505060405180910390fd5b6000610f2f61197d565b6040015190506000610f7d610f6e610f4561052e565b610f60670de0b6b3a764000087611a7a90919063ffffffff16565b611b0090919063ffffffff16565b83611b4a90919063ffffffff16565b9050610f876126b8565b60405180606001604052804381526020018581526020018381525090506008819080600181540180825580915050600190039060005260206000209060030201600090919091909150600082015181600001556020820151816001015560408201518160020155505061103f333086600660009054906101000a900473ffffffffffffffffffffffffffffffffffffffff1673ffffffffffffffffffffffffffffffffffffffff16611f26909392919063ffffffff16565b3373ffffffffffffffffffffffffffffffffffffffff167fac24935fd910bc682b5ccb1a07b718cadf8cf2f6d1404c4f3ddc3662dae40e29856040518082815260200191505060405180910390a250505060016003600043815260200190815260200160002060003273ffffffffffffffffffffffffffffffffffffffff1673ffffffffffffffffffffffffffffffffffffffff16815260200190815260200160002060006101000a81548160ff02191690831515021790555060016003600043815260200190815260200160002060003373ffffffffffffffffffffffffffffffffffffffff1673ffffffffffffffffffffffffffffffffffffffff16815260200190815260200160002060006101000a81548160ff02191690831515021790555050565b61116d611cff565b156111c3576040517f08c379a00000000000000000000000000000000000000000000000000000000081526004018080602001828103825260268152602001806128186026913960400191505060405180910390fd5b6111cb611d64565b15611221576040517f08c379a00000000000000000000000000000000000000000000000000000000081526004018080602001828103825260268152602001806128186026913960400191505060405180910390fd5b33600073ffffffffffffffffffffffffffffffffffffffff168173ffffffffffffffffffffffffffffffffffffffff161461133a5761125e61269e565b600760008373ffffffffffffffffffffffffffffffffffffffff1673ffffffffffffffffffffffffffffffffffffffff1681526020019081526020016000206040518060400160405290816000820154815260200160018201548152505090506112c782610468565b8160200181815250506112d86109e7565b81600001818152505080600760008473ffffffffffffffffffffffffffffffffffffffff1673ffffffffffffffffffffffffffffffffffffffff1681526020019081526020016000206000820151816000015560208201518160010155905050505b600082116113b0576040517f08c379a00000000000000000000000000000000000000000000000000000000081526004018080602001828103825260198152602001807f426f617264726f6f6d3a2043616e6e6f74207374616b6520300000000000000081525060200191505060405180910390fd5b6113b982611fe7565b3373ffffffffffffffffffffffffffffffffffffffff167f9e71bc8eea02a63969f509818f2dafb9254532904319f9dbda79b67bd34a5f3d836040518082815260200191505060405180910390a25060016003600043815260200190815260200160002060003273ffffffffffffffffffffffffffffffffffffffff1673ffffffffffffffffffffffffffffffffffffffff16815260200190815260200160002060006101000a81548160ff02191690831515021790555060016003600043815260200190815260200160002060003373ffffffffffffffffffffffffffffffffffffffff1673ffffffffffffffffffffffffffffffffffffffff16815260200190815260200160002060006101000a81548160ff02191690831515021790555050565b60008054906101000a900473ffffffffffffffffffffffffffffffffffffffff1681565b33600073ffffffffffffffffffffffffffffffffffffffff168173ffffffffffffffffffffffffffffffffffffffff161461161a5761153e61269e565b600760008373ffffffffffffffffffffffffffffffffffffffff1673ffffffffffffffffffffffffffffffffffffffff1681526020019081526020016000206040518060400160405290816000820154815260200160018201548152505090506115a782610468565b8160200181815250506115b86109e7565b81600001818152505080600760008473ffffffffffffffffffffffffffffffffffffffff1673ffffffffffffffffffffffffffffffffffffffff1681526020019081526020016000206000820151816000015560208201518160010155905050505b6000600760003373ffffffffffffffffffffffffffffffffffffffff1673ffffffffffffffffffffffffffffffffffffffff168152602001908152602001600020600101549050600081111561174e576000600760003373ffffffffffffffffffffffffffffffffffffffff1673ffffffffffffffffffffffffffffffffffffffff168152602001908152602001600020600101819055506116ff3382600660009054906101000a900473ffffffffffffffffffffffffffffffffffffffff1673ffffffffffffffffffffffffffffffffffffffff166120e79092919063ffffffff16565b3373ffffffffffffffffffffffffffffffffffffffff167fe2403640ba68fed3a2f88b7557551d1993f84b99bb10ff833f0cf8db0c5e0486826040518082815260200191505060405180910390a25b5050565b61176361175e33610aa3565b61060e565b61176b611501565b565b611775611bd2565b73ffffffffffffffffffffffffffffffffffffffff16600460009054906101000a900473ffffffffffffffffffffffffffffffffffffffff1673ffffffffffffffffffffffffffffffffffffffff1614611837576040517f08c379a00000000000000000000000000000000000000000000000000000000081526004018080602001828103825260208152602001807f4f776e61626c653a2063616c6c6572206973206e6f7420746865206f776e657281525060200191505060405180910390fd5b600073ffffffffffffffffffffffffffffffffffffffff168173ffffffffffffffffffffffffffffffffffffffff1614156118bd576040517f08c379a00000000000000000000000000000000000000000000000000000000081526004018080602001828103825260268152602001806126da6026913960400191505060405180910390fd5b8073ffffffffffffffffffffffffffffffffffffffff16600460009054906101000a900473ffffffffffffffffffffffffffffffffffffffff1673ffffffffffffffffffffffffffffffffffffffff167f8be0079c531659141344cd1fd0a4f28419497f9722a3daafe3b4186f6b6457e060405160405180910390a380600460006101000a81548173ffffffffffffffffffffffffffffffffffffffff021916908373ffffffffffffffffffffffffffffffffffffffff16021790555050565b6119856126b8565b600861198f6109e7565b8154811061199957fe5b90600052602060002090600302016040518060600160405290816000820154815260200160018201548152602001600282015481525050905090565b6119dd6126b8565b60086119e883610aec565b815481106119f257fe5b906000526020600020906003020160405180606001604052908160008201548152602001600182015481526020016002820154815250509050919050565b6000611a7283836040518060400160405280601e81526020017f536166654d6174683a207375627472616374696f6e206f766572666c6f770000815250612189565b905092915050565b600080831415611a8d5760009050611afa565b6000828402905082848281611a9e57fe5b0414611af5576040517f08c379a00000000000000000000000000000000000000000000000000000000081526004018080602001828103825260218152602001806127836021913960400191505060405180910390fd5b809150505b92915050565b6000611b4283836040518060400160405280601a81526020017f536166654d6174683a206469766973696f6e206279207a65726f000000000000815250612249565b905092915050565b600080828401905083811015611bc8576040517f08c379a000000000000000000000000000000000000000000000000000000000815260040180806020018281038252601b8152602001807f536166654d6174683a206164646974696f6e206f766572666c6f77000000000081525060200191505060405180910390fd5b8091505092915050565b600033905090565b600073ffffffffffffffffffffffffffffffffffffffff168173ffffffffffffffffffffffffffffffffffffffff161415611c60576040517f08c379a000000000000000000000000000000000000000000000000000000000815260040180806020018281038252602d815260200180612726602d913960400191505060405180910390fd5b8073ffffffffffffffffffffffffffffffffffffffff16600073ffffffffffffffffffffffffffffffffffffffff167f74da04524d50c64947f5dd5381ef1a4dca5cba8ed1d816243f9e48aa0b5617ed60405160405180910390a380600560006101000a81548173ffffffffffffffffffffffffffffffffffffffff021916908373ffffffffffffffffffffffffffffffffffffffff16021790555050565b60006003600043815260200190815260200160002060003273ffffffffffffffffffffffffffffffffffffffff1673ffffffffffffffffffffffffffffffffffffffff16815260200190815260200160002060009054906101000a900460ff16905090565b60006003600043815260200190815260200160002060003373ffffffffffffffffffffffffffffffffffffffff1673ffffffffffffffffffffffffffffffffffffffff16815260200190815260200160002060009054906101000a900460ff16905090565b6000600260003373ffffffffffffffffffffffffffffffffffffffff1673ffffffffffffffffffffffffffffffffffffffff16815260200190815260200160002054905081811015611e66576040517f08c379a000000000000000000000000000000000000000000000000000000000815260040180806020018281038252603681526020018061283e6036913960400191505060405180910390fd5b611e7b82600154611a3090919063ffffffff16565b600181905550611e948282611a3090919063ffffffff16565b600260003373ffffffffffffffffffffffffffffffffffffffff1673ffffffffffffffffffffffffffffffffffffffff16815260200190815260200160002081905550611f22338360008054906101000a900473ffffffffffffffffffffffffffffffffffffffff1673ffffffffffffffffffffffffffffffffffffffff166120e79092919063ffffffff16565b5050565b611fe1846323b872dd60e01b858585604051602401808473ffffffffffffffffffffffffffffffffffffffff1681526020018373ffffffffffffffffffffffffffffffffffffffff1681526020018281526020019350505050604051602081830303815290604052907bffffffffffffffffffffffffffffffffffffffffffffffffffffffff19166020820180517bffffffffffffffffffffffffffffffffffffffffffffffffffffffff838183161783525050505061230f565b50505050565b611ffc81600154611b4a90919063ffffffff16565b60018190555061205481600260003373ffffffffffffffffffffffffffffffffffffffff1673ffffffffffffffffffffffffffffffffffffffff16815260200190815260200160002054611b4a90919063ffffffff16565b600260003373ffffffffffffffffffffffffffffffffffffffff1673ffffffffffffffffffffffffffffffffffffffff168152602001908152602001600020819055506120e433308360008054906101000a900473ffffffffffffffffffffffffffffffffffffffff1673ffffffffffffffffffffffffffffffffffffffff16611f26909392919063ffffffff16565b50565b6121848363a9059cbb60e01b8484604051602401808373ffffffffffffffffffffffffffffffffffffffff16815260200182815260200192505050604051602081830303815290604052907bffffffffffffffffffffffffffffffffffffffffffffffffffffffff19166020820180517bffffffffffffffffffffffffffffffffffffffffffffffffffffffff838183161783525050505061230f565b505050565b6000838311158290612236576040517f08c379a00000000000000000000000000000000000000000000000000000000081526004018080602001828103825283818151815260200191508051906020019080838360005b838110156121fb5780820151818401526020810190506121e0565b50505050905090810190601f1680156122285780820380516001836020036101000a031916815260200191505b509250505060405180910390fd5b5060008385039050809150509392505050565b600080831182906122f5576040517f08c379a00000000000000000000000000000000000000000000000000000000081526004018080602001828103825283818151815260200191508051906020019080838360005b838110156122ba57808201518184015260208101905061229f565b50505050905090810190601f1680156122e75780820380516001836020036101000a031916815260200191505b509250505060405180910390fd5b50600083858161230157fe5b049050809150509392505050565b6060612371826040518060400160405280602081526020017f5361666545524332303a206c6f772d6c6576656c2063616c6c206661696c65648152508573ffffffffffffffffffffffffffffffffffffffff166123fe9092919063ffffffff16565b90506000815111156123f95780806020019051602081101561239257600080fd5b81019080805190602001909291905050506123f8576040517f08c379a000000000000000000000000000000000000000000000000000000000815260040180806020018281038252602a8152602001806127ee602a913960400191505060405180910390fd5b5b505050565b606061240d8484600085612416565b90509392505050565b606082471015612471576040517f08c379a00000000000000000000000000000000000000000000000000000000081526004018080602001828103825260268152602001806127006026913960400191505060405180910390fd5b61247a856125bf565b6124ec576040517f08c379a000000000000000000000000000000000000000000000000000000000815260040180806020018281038252601d8152602001807f416464726573733a2063616c6c20746f206e6f6e2d636f6e747261637400000081525060200191505060405180910390fd5b600060608673ffffffffffffffffffffffffffffffffffffffff1685876040518082805190602001908083835b6020831061253c5780518252602082019150602081019050602083039250612519565b6001836020036101000a03801982511681845116808217855250505050505090500191505060006040518083038185875af1925050503d806000811461259e576040519150601f19603f3d011682016040523d82523d6000602084013e6125a3565b606091505b50915091506125b38282866125d2565b92505050949350505050565b600080823b905060008111915050919050565b606083156125e257829050612697565b6000835111156125f55782518084602001fd5b816040517f08c379a00000000000000000000000000000000000000000000000000000000081526004018080602001828103825283818151815260200191508051906020019080838360005b8381101561265c578082015181840152602081019050612641565b50505050905090810190601f1680156126895780820380516001836020036101000a031916815260200191505b509250505060405180910390fd5b9392505050565b604051806040016040528060008152602001600081525090565b6040518060600160405280600081526020016000815260200160008152509056fe4f776e61626c653a206e6577206f776e657220697320746865207a65726f2061646472657373416464726573733a20696e73756666696369656e742062616c616e636520666f722063616c6c6f70657261746f723a207a65726f206164647265737320676976656e20666f72206e6577206f70657261746f72426f617264726f6f6d3a2043616e6e6f7420616c6c6f63617465207768656e20746f74616c537570706c792069732030536166654d6174683a206d756c7469706c69636174696f6e206f766572666c6f776f70657261746f723a2063616c6c6572206973206e6f7420746865206f70657261746f72426f617264726f6f6d3a20546865206469726563746f7220646f6573206e6f742065786973745361666545524332303a204552433230206f7065726174696f6e20646964206e6f742073756363656564436f6e747261637447756172643a206f6e6520626c6f636b2c206f6e652066756e6374696f6e426f617264726f6f6d3a20776974686472617720726571756573742067726561746572207468616e207374616b656420616d6f756e74a26469706673582212207f1400dc1073524dfa9b69c19490cb8027f4d1bce40dd1ebfd203c4c1131524164736f6c634300060c0033",
  "immutableReferences": {},
  "source": "pragma solidity ^0.6.12;\r\n\r\nimport '@openzeppelin/contracts/token/ERC20/IERC20.sol';\r\nimport '@openzeppelin/contracts/token/ERC20/SafeERC20.sol';\r\n\r\nimport './lib/Safe112.sol';\r\nimport './owner/Operator.sol';\r\nimport './utils/ContractGuard.sol';\r\nimport './interfaces/IUCashAsset.sol';\r\n\r\ncontract ShareWrapper {\r\n    using SafeMath for uint256;\r\n    using SafeERC20 for IERC20;\r\n\r\n    IERC20 public share;\r\n\r\n    uint256 private _totalSupply;\r\n    mapping(address => uint256) private _balances;\r\n\r\n    function totalSupply() public view returns (uint256) {\r\n        return _totalSupply;\r\n    }\r\n\r\n    function balanceOf(address account) public view returns (uint256) {\r\n        return _balances[account];\r\n    }\r\n\r\n    function stake(uint256 amount) public virtual {\r\n        _totalSupply = _totalSupply.add(amount);\r\n        _balances[msg.sender] = _balances[msg.sender].add(amount);\r\n        share.safeTransferFrom(msg.sender, address(this), amount);\r\n    }\r\n\r\n    function withdraw(uint256 amount) public virtual {\r\n        uint256 directorShare = _balances[msg.sender];\r\n        require(\r\n            directorShare >= amount,\r\n            'Boardroom: withdraw request greater than staked amount'\r\n        );\r\n        _totalSupply = _totalSupply.sub(amount);\r\n        _balances[msg.sender] = directorShare.sub(amount);\r\n        share.safeTransfer(msg.sender, amount);\r\n    }\r\n}\r\n\r\n\r\ncontract Boardroom is ShareWrapper, ContractGuard, Operator {\r\n    using SafeERC20 for IERC20;\r\n    using Address for address;\r\n    using SafeMath for uint256;\r\n    using Safe112 for uint112;\r\n\r\n    /* ========== DATA STRUCTURES ========== */\r\n\r\n    struct Boardseat {\r\n        uint256 lastSnapshotIndex;\r\n        uint256 rewardEarned;\r\n    }\r\n\r\n    struct BoardSnapshot {\r\n        uint256 time;\r\n        uint256 rewardReceived;\r\n        uint256 rewardPerShare;\r\n    }\r\n\r\n    /* ========== STATE VARIABLES ========== */\r\n\r\n    IERC20 private cash;\r\n\r\n    mapping(address => Boardseat) private directors;\r\n    BoardSnapshot[] private boardHistory;\r\n\r\n    /* ========== CONSTRUCTOR ========== */\r\n\r\n    constructor(IERC20 _cash, IERC20 _share) public {\r\n        cash = _cash;\r\n        share = _share;\r\n\r\n        BoardSnapshot memory genesisSnapshot = BoardSnapshot({\r\n            time: block.number,\r\n            rewardReceived: 0,\r\n            rewardPerShare: 0\r\n        });\r\n        boardHistory.push(genesisSnapshot);\r\n    }\r\n\r\n    /* ========== Modifiers =============== */\r\n    modifier directorExists {\r\n        require(\r\n            balanceOf(msg.sender) > 0,\r\n            'Boardroom: The director does not exist'\r\n        );\r\n        _;\r\n    }\r\n\r\n    modifier updateReward(address director) {\r\n        if (director != address(0)) {\r\n            Boardseat memory seat = directors[director];\r\n            seat.rewardEarned = earned(director);\r\n            seat.lastSnapshotIndex = latestSnapshotIndex();\r\n            directors[director] = seat;\r\n        }\r\n        _;\r\n    }\r\n\r\n    /* ========== VIEW FUNCTIONS ========== */\r\n\r\n    // =========== Snapshot getters\r\n\r\n    function latestSnapshotIndex() public view returns (uint256) {\r\n        return boardHistory.length.sub(1);\r\n    }\r\n\r\n    function getLatestSnapshot() internal view returns (BoardSnapshot memory) {\r\n        return boardHistory[latestSnapshotIndex()];\r\n    }\r\n\r\n    function getLastSnapshotIndexOf(address director)\r\n        public\r\n        view\r\n        returns (uint256)\r\n    {\r\n        return directors[director].lastSnapshotIndex;\r\n    }\r\n\r\n    function getLastSnapshotOf(address director)\r\n        internal\r\n        view\r\n        returns (BoardSnapshot memory)\r\n    {\r\n        return boardHistory[getLastSnapshotIndexOf(director)];\r\n    }\r\n\r\n    // =========== Director getters\r\n\r\n    function rewardPerShare() public view returns (uint256) {\r\n        return getLatestSnapshot().rewardPerShare;\r\n    }\r\n\r\n    function earned(address director) public view returns (uint256) {\r\n        uint256 latestRPS = getLatestSnapshot().rewardPerShare;\r\n        uint256 storedRPS = getLastSnapshotOf(director).rewardPerShare;\r\n\r\n        return\r\n            balanceOf(director).mul(latestRPS.sub(storedRPS)).div(1e18).add(\r\n                directors[director].rewardEarned\r\n            );\r\n    }\r\n\r\n    /* ========== MUTATIVE FUNCTIONS ========== */\r\n\r\n    function stake(uint256 amount)\r\n        public\r\n        override\r\n        onlyOneBlock\r\n        updateReward(msg.sender)\r\n    {\r\n        require(amount > 0, 'Boardroom: Cannot stake 0');\r\n        super.stake(amount);\r\n        emit Staked(msg.sender, amount);\r\n    }\r\n\r\n    function withdraw(uint256 amount)\r\n        public\r\n        override\r\n        onlyOneBlock\r\n        directorExists\r\n        updateReward(msg.sender)\r\n    {\r\n        require(amount > 0, 'Boardroom: Cannot withdraw 0');\r\n        super.withdraw(amount);\r\n        emit Withdrawn(msg.sender, amount);\r\n    }\r\n\r\n    function exit() external {\r\n        withdraw(balanceOf(msg.sender));\r\n        claimReward();\r\n    }\r\n\r\n    function claimReward() public updateReward(msg.sender) {\r\n        uint256 reward = directors[msg.sender].rewardEarned;\r\n        if (reward > 0) {\r\n            directors[msg.sender].rewardEarned = 0;\r\n            cash.safeTransfer(msg.sender, reward);\r\n            emit RewardPaid(msg.sender, reward);\r\n        }\r\n    }\r\n\r\n    function allocateSeigniorage(uint256 amount)\r\n        external\r\n        onlyOneBlock\r\n        onlyOperator\r\n    {\r\n        require(amount > 0, 'Boardroom: Cannot allocate 0');\r\n        require(\r\n            totalSupply() > 0,\r\n            'Boardroom: Cannot allocate when totalSupply is 0'\r\n        );\r\n\r\n        // Create & add new snapshot\r\n        uint256 prevRPS = getLatestSnapshot().rewardPerShare;\r\n        uint256 nextRPS = prevRPS.add(amount.mul(1e18).div(totalSupply()));\r\n\r\n        BoardSnapshot memory newSnapshot = BoardSnapshot({\r\n            time: block.number,\r\n            rewardReceived: amount,\r\n            rewardPerShare: nextRPS\r\n        });\r\n        boardHistory.push(newSnapshot);\r\n\r\n        cash.safeTransferFrom(msg.sender, address(this), amount);\r\n        emit RewardAdded(msg.sender, amount);\r\n    }\r\n\r\n    /* ========== EVENTS ========== */\r\n\r\n    event Staked(address indexed user, uint256 amount);\r\n    event Withdrawn(address indexed user, uint256 amount);\r\n    event RewardPaid(address indexed user, uint256 reward);\r\n    event RewardAdded(address indexed user, uint256 reward);\r\n}",
  "sourcePath": "C:/Users/Administrator/UCash/contracts/Boardroom.sol",
  "compiler": {
    "name": "solc",
    "version": "0.6.12+commit.27d51765.Emscripten.clang"
  },
  "schemaVersion": "3.3.3",
  "updatedAt": "2020-12-25T05:39:41.987Z",
  "networkType": "ethereum",
  "devdoc": {
    "kind": "dev",
    "methods": {
      "owner()": {
        "details": "Returns the address of the current owner."
      },
      "renounceOwnership()": {
        "details": "Leaves the contract without owner. It will not be possible to call `onlyOwner` functions anymore. Can only be called by the current owner. NOTE: Renouncing ownership will leave the contract without an owner, thereby removing any functionality that is only available to the owner."
      },
      "transferOwnership(address)": {
        "details": "Transfers ownership of the contract to a new account (`newOwner`). Can only be called by the current owner."
      }
    },
    "version": 1
  },
  "userdoc": {
    "kind": "user",
    "methods": {},
    "version": 1
  }
}