{
  "contractName": "Treasury",
  "abi": [
    {
      "inputs": [
        {
          "internalType": "address",
          "name": "_cash",
          "type": "address"
        },
        {
          "internalType": "address",
          "name": "_share",
          "type": "address"
        },
        {
          "internalType": "address",
          "name": "_seigniorageOracle",
          "type": "address"
        },
        {
          "internalType": "address",
          "name": "_boardroom",
          "type": "address"
        },
        {
          "internalType": "uint256",
          "name": "_startTime",
          "type": "uint256"
        },
        {
          "internalType": "address",
          "name": "_UBCUSDTPool",
          "type": "address"
        }
      ],
      "stateMutability": "nonpayable",
      "type": "constructor"
    },
    {
      "anonymous": false,
      "inputs": [
        {
          "indexed": false,
          "internalType": "uint256",
          "name": "timestamp",
          "type": "uint256"
        },
        {
          "indexed": false,
          "internalType": "uint256",
          "name": "seigniorage",
          "type": "uint256"
        }
      ],
      "name": "BoardroomFunded",
      "type": "event"
    },
    {
      "anonymous": false,
      "inputs": [
        {
          "indexed": true,
          "internalType": "address",
          "name": "target",
          "type": "address"
        }
      ],
      "name": "Migration",
      "type": "event"
    },
    {
      "anonymous": false,
      "inputs": [
        {
          "indexed": true,
          "internalType": "address",
          "name": "previousOperator",
          "type": "address"
        },
        {
          "indexed": true,
          "internalType": "address",
          "name": "newOperator",
          "type": "address"
        }
      ],
      "name": "OperatorTransferred",
      "type": "event"
    },
    {
      "anonymous": false,
      "inputs": [
        {
          "indexed": true,
          "internalType": "address",
          "name": "previousOwner",
          "type": "address"
        },
        {
          "indexed": true,
          "internalType": "address",
          "name": "newOwner",
          "type": "address"
        }
      ],
      "name": "OwnershipTransferred",
      "type": "event"
    },
    {
      "anonymous": false,
      "inputs": [
        {
          "indexed": true,
          "internalType": "bytes32",
          "name": "role",
          "type": "bytes32"
        },
        {
          "indexed": true,
          "internalType": "bytes32",
          "name": "previousAdminRole",
          "type": "bytes32"
        },
        {
          "indexed": true,
          "internalType": "bytes32",
          "name": "newAdminRole",
          "type": "bytes32"
        }
      ],
      "name": "RoleAdminChanged",
      "type": "event"
    },
    {
      "anonymous": false,
      "inputs": [
        {
          "indexed": true,
          "internalType": "bytes32",
          "name": "role",
          "type": "bytes32"
        },
        {
          "indexed": true,
          "internalType": "address",
          "name": "account",
          "type": "address"
        },
        {
          "indexed": true,
          "internalType": "address",
          "name": "sender",
          "type": "address"
        }
      ],
      "name": "RoleGranted",
      "type": "event"
    },
    {
      "anonymous": false,
      "inputs": [
        {
          "indexed": true,
          "internalType": "bytes32",
          "name": "role",
          "type": "bytes32"
        },
        {
          "indexed": true,
          "internalType": "address",
          "name": "account",
          "type": "address"
        },
        {
          "indexed": true,
          "internalType": "address",
          "name": "sender",
          "type": "address"
        }
      ],
      "name": "RoleRevoked",
      "type": "event"
    },
    {
      "inputs": [
        {
          "internalType": "address",
          "name": "",
          "type": "address"
        }
      ],
      "name": "CPEarned",
      "outputs": [
        {
          "internalType": "uint256",
          "name": "",
          "type": "uint256"
        }
      ],
      "stateMutability": "view",
      "type": "function",
      "constant": true
    },
    {
      "inputs": [],
      "name": "DEFAULT_ADMIN_ROLE",
      "outputs": [
        {
          "internalType": "bytes32",
          "name": "",
          "type": "bytes32"
        }
      ],
      "stateMutability": "view",
      "type": "function",
      "constant": true
    },
    {
      "inputs": [],
      "name": "EXTENSION",
      "outputs": [
        {
          "internalType": "bytes32",
          "name": "",
          "type": "bytes32"
        }
      ],
      "stateMutability": "view",
      "type": "function",
      "constant": true
    },
    {
      "inputs": [],
      "name": "boardroom",
      "outputs": [
        {
          "internalType": "address",
          "name": "",
          "type": "address"
        }
      ],
      "stateMutability": "view",
      "type": "function",
      "constant": true
    },
    {
      "inputs": [],
      "name": "cash",
      "outputs": [
        {
          "internalType": "address",
          "name": "",
          "type": "address"
        }
      ],
      "stateMutability": "view",
      "type": "function",
      "constant": true
    },
    {
      "inputs": [],
      "name": "cashPriceCeiling",
      "outputs": [
        {
          "internalType": "uint256",
          "name": "",
          "type": "uint256"
        }
      ],
      "stateMutability": "view",
      "type": "function",
      "constant": true
    },
    {
      "inputs": [],
      "name": "cashPriceFloor",
      "outputs": [
        {
          "internalType": "uint256",
          "name": "",
          "type": "uint256"
        }
      ],
      "stateMutability": "view",
      "type": "function",
      "constant": true
    },
    {
      "inputs": [],
      "name": "cashPriceOne",
      "outputs": [
        {
          "internalType": "uint256",
          "name": "",
          "type": "uint256"
        }
      ],
      "stateMutability": "view",
      "type": "function",
      "constant": true
    },
    {
      "inputs": [],
      "name": "getCurrentEpoch",
      "outputs": [
        {
          "internalType": "uint256",
          "name": "",
          "type": "uint256"
        }
      ],
      "stateMutability": "view",
      "type": "function",
      "constant": true
    },
    {
      "inputs": [],
      "name": "getPeriod",
      "outputs": [
        {
          "internalType": "uint256",
          "name": "",
          "type": "uint256"
        }
      ],
      "stateMutability": "view",
      "type": "function",
      "constant": true
    },
    {
      "inputs": [
        {
          "internalType": "bytes32",
          "name": "role",
          "type": "bytes32"
        }
      ],
      "name": "getRoleAdmin",
      "outputs": [
        {
          "internalType": "bytes32",
          "name": "",
          "type": "bytes32"
        }
      ],
      "stateMutability": "view",
      "type": "function",
      "constant": true
    },
    {
      "inputs": [
        {
          "internalType": "bytes32",
          "name": "role",
          "type": "bytes32"
        },
        {
          "internalType": "uint256",
          "name": "index",
          "type": "uint256"
        }
      ],
      "name": "getRoleMember",
      "outputs": [
        {
          "internalType": "address",
          "name": "",
          "type": "address"
        }
      ],
      "stateMutability": "view",
      "type": "function",
      "constant": true
    },
    {
      "inputs": [
        {
          "internalType": "bytes32",
          "name": "role",
          "type": "bytes32"
        }
      ],
      "name": "getRoleMemberCount",
      "outputs": [
        {
          "internalType": "uint256",
          "name": "",
          "type": "uint256"
        }
      ],
      "stateMutability": "view",
      "type": "function",
      "constant": true
    },
    {
      "inputs": [],
      "name": "getStartTime",
      "outputs": [
        {
          "internalType": "uint256",
          "name": "",
          "type": "uint256"
        }
      ],
      "stateMutability": "view",
      "type": "function",
      "constant": true
    },
    {
      "inputs": [
        {
          "internalType": "bytes32",
          "name": "role",
          "type": "bytes32"
        },
        {
          "internalType": "address",
          "name": "account",
          "type": "address"
        }
      ],
      "name": "grantRole",
      "outputs": [],
      "stateMutability": "nonpayable",
      "type": "function"
    },
    {
      "inputs": [
        {
          "internalType": "bytes32",
          "name": "role",
          "type": "bytes32"
        },
        {
          "internalType": "address",
          "name": "account",
          "type": "address"
        }
      ],
      "name": "hasRole",
      "outputs": [
        {
          "internalType": "bool",
          "name": "",
          "type": "bool"
        }
      ],
      "stateMutability": "view",
      "type": "function",
      "constant": true
    },
    {
      "inputs": [],
      "name": "isOperator",
      "outputs": [
        {
          "internalType": "bool",
          "name": "",
          "type": "bool"
        }
      ],
      "stateMutability": "view",
      "type": "function",
      "constant": true
    },
    {
      "inputs": [],
      "name": "migrated",
      "outputs": [
        {
          "internalType": "bool",
          "name": "",
          "type": "bool"
        }
      ],
      "stateMutability": "view",
      "type": "function",
      "constant": true
    },
    {
      "inputs": [],
      "name": "nextEpochPoint",
      "outputs": [
        {
          "internalType": "uint256",
          "name": "",
          "type": "uint256"
        }
      ],
      "stateMutability": "view",
      "type": "function",
      "constant": true
    },
    {
      "inputs": [],
      "name": "operator",
      "outputs": [
        {
          "internalType": "address",
          "name": "",
          "type": "address"
        }
      ],
      "stateMutability": "view",
      "type": "function",
      "constant": true
    },
    {
      "inputs": [],
      "name": "owner",
      "outputs": [
        {
          "internalType": "address",
          "name": "",
          "type": "address"
        }
      ],
      "stateMutability": "view",
      "type": "function",
      "constant": true
    },
    {
      "inputs": [],
      "name": "pendingMintedUBC",
      "outputs": [
        {
          "internalType": "uint256",
          "name": "",
          "type": "uint256"
        }
      ],
      "stateMutability": "view",
      "type": "function",
      "constant": true
    },
    {
      "inputs": [],
      "name": "renounceOwnership",
      "outputs": [],
      "stateMutability": "nonpayable",
      "type": "function"
    },
    {
      "inputs": [
        {
          "internalType": "bytes32",
          "name": "role",
          "type": "bytes32"
        },
        {
          "internalType": "address",
          "name": "account",
          "type": "address"
        }
      ],
      "name": "renounceRole",
      "outputs": [],
      "stateMutability": "nonpayable",
      "type": "function"
    },
    {
      "inputs": [
        {
          "internalType": "bytes32",
          "name": "role",
          "type": "bytes32"
        },
        {
          "internalType": "address",
          "name": "account",
          "type": "address"
        }
      ],
      "name": "revokeRole",
      "outputs": [],
      "stateMutability": "nonpayable",
      "type": "function"
    },
    {
      "inputs": [],
      "name": "seigniorageOracle",
      "outputs": [
        {
          "internalType": "address",
          "name": "",
          "type": "address"
        }
      ],
      "stateMutability": "view",
      "type": "function",
      "constant": true
    },
    {
      "inputs": [
        {
          "internalType": "uint256",
          "name": "_period",
          "type": "uint256"
        }
      ],
      "name": "setPeriod",
      "outputs": [],
      "stateMutability": "nonpayable",
      "type": "function"
    },
    {
      "inputs": [],
      "name": "share",
      "outputs": [
        {
          "internalType": "address",
          "name": "",
          "type": "address"
        }
      ],
      "stateMutability": "view",
      "type": "function",
      "constant": true
    },
    {
      "inputs": [],
      "name": "totalBurned",
      "outputs": [
        {
          "internalType": "uint256",
          "name": "",
          "type": "uint256"
        }
      ],
      "stateMutability": "view",
      "type": "function",
      "constant": true
    },
    {
      "inputs": [
        {
          "internalType": "address",
          "name": "newOperator_",
          "type": "address"
        }
      ],
      "name": "transferOperator",
      "outputs": [],
      "stateMutability": "nonpayable",
      "type": "function"
    },
    {
      "inputs": [
        {
          "internalType": "address",
          "name": "newOwner",
          "type": "address"
        }
      ],
      "name": "transferOwnership",
      "outputs": [],
      "stateMutability": "nonpayable",
      "type": "function"
    },
    {
      "inputs": [],
      "name": "ubcusdtPool",
      "outputs": [
        {
          "internalType": "address",
          "name": "",
          "type": "address"
        }
      ],
      "stateMutability": "view",
      "type": "function",
      "constant": true
    },
    {
      "inputs": [
        {
          "internalType": "uint256",
          "name": "amount",
          "type": "uint256"
        }
      ],
      "name": "ExtensionMint",
      "outputs": [],
      "stateMutability": "nonpayable",
      "type": "function"
    },
    {
      "inputs": [
        {
          "internalType": "uint256",
          "name": "amount",
          "type": "uint256"
        }
      ],
      "name": "ExtensionBurn",
      "outputs": [],
      "stateMutability": "nonpayable",
      "type": "function"
    },
    {
      "inputs": [
        {
          "internalType": "uint256",
          "name": "ceiling",
          "type": "uint256"
        },
        {
          "internalType": "uint256",
          "name": "one",
          "type": "uint256"
        },
        {
          "internalType": "uint256",
          "name": "floor",
          "type": "uint256"
        }
      ],
      "name": "setParams",
      "outputs": [],
      "stateMutability": "nonpayable",
      "type": "function"
    },
    {
      "inputs": [],
      "name": "getSeigniorageOraclePrice",
      "outputs": [
        {
          "internalType": "uint256",
          "name": "",
          "type": "uint256"
        }
      ],
      "stateMutability": "view",
      "type": "function",
      "constant": true
    },
    {
      "inputs": [
        {
          "internalType": "address",
          "name": "target",
          "type": "address"
        }
      ],
      "name": "migrate",
      "outputs": [],
      "stateMutability": "nonpayable",
      "type": "function"
    },
    {
      "inputs": [
        {
          "internalType": "uint256",
          "name": "amount",
          "type": "uint256"
        }
      ],
      "name": "melter",
      "outputs": [],
      "stateMutability": "nonpayable",
      "type": "function"
    },
    {
      "inputs": [],
      "name": "redeem",
      "outputs": [],
      "stateMutability": "nonpayable",
      "type": "function"
    },
    {
      "inputs": [],
      "name": "getTotalPooledUBC",
      "outputs": [
        {
          "internalType": "uint256",
          "name": "",
          "type": "uint256"
        }
      ],
      "stateMutability": "view",
      "type": "function",
      "constant": true
    },
    {
      "inputs": [],
      "name": "allocateSeigniorage",
      "outputs": [],
      "stateMutability": "nonpayable",
      "type": "function"
    }
  ],
  "bytecode": "0x60806040526000600760006101000a81548160ff0219169083151502179055503480156200002c57600080fd5b5060405162004d5e38038062004d5e833981810160405260c08110156200005257600080fd5b810190808051906020019092919080519060200190929190805190602001909291908051906020019092919080519060200190929190805190602001909291905050506201518082600080620000ad6200041b60201b60201c565b905080600160006101000a81548173ffffffffffffffffffffffffffffffffffffffff021916908373ffffffffffffffffffffffffffffffffffffffff1602179055508073ffffffffffffffffffffffffffffffffffffffff16600073ffffffffffffffffffffffffffffffffffffffff167f8be0079c531659141344cd1fd0a4f28419497f9722a3daafe3b4186f6b6457e060405160405180910390a3506200015c6200041b60201b60201c565b600260006101000a81548173ffffffffffffffffffffffffffffffffffffffff021916908373ffffffffffffffffffffffffffffffffffffffff160217905550600260009054906101000a900473ffffffffffffffffffffffffffffffffffffffff1673ffffffffffffffffffffffffffffffffffffffff16600073ffffffffffffffffffffffffffffffffffffffff167f74da04524d50c64947f5dd5381ef1a4dca5cba8ed1d816243f9e48aa0b5617ed60405160405180910390a382600381905550816004819055508060058190555050505085600760016101000a81548173ffffffffffffffffffffffffffffffffffffffff021916908373ffffffffffffffffffffffffffffffffffffffff16021790555084600860006101000a81548173ffffffffffffffffffffffffffffffffffffffff021916908373ffffffffffffffffffffffffffffffffffffffff16021790555083600a60006101000a81548173ffffffffffffffffffffffffffffffffffffffff021916908373ffffffffffffffffffffffffffffffffffffffff16021790555082600960006101000a81548173ffffffffffffffffffffffffffffffffffffffff021916908373ffffffffffffffffffffffffffffffffffffffff16021790555080600b60006101000a81548173ffffffffffffffffffffffffffffffffffffffff021916908373ffffffffffffffffffffffffffffffffffffffff160217905550620f4240600c81905550620003b76064620003a3600c5460696200042360201b620033581790919060201c565b620004ae60201b620033de1790919060201c565b600d81905550620003f46064620003e0600c54605f6200042360201b620033581790919060201c565b620004ae60201b620033de1790919060201c565b600e819055506200040f6000801b336200050060201b60201c565b5050505050506200075a565b600033905090565b600080831415620004385760009050620004a8565b60008284029050828482816200044a57fe5b0414620004a3576040517f08c379a000000000000000000000000000000000000000000000000000000000815260040180806020018281038252602181526020018062004d3d6021913960400191505060405180910390fd5b809150505b92915050565b6000620004f883836040518060400160405280601a81526020017f536166654d6174683a206469766973696f6e206279207a65726f0000000000008152506200051660201b60201c565b905092915050565b620005128282620005e160201b60201c565b5050565b60008083118290620005c6576040517f08c379a00000000000000000000000000000000000000000000000000000000081526004018080602001828103825283818151815260200191508051906020019080838360005b838110156200058a5780820151818401526020810190506200056d565b50505050905090810190601f168015620005b85780820380516001836020036101000a031916815260200191505b509250505060405180910390fd5b506000838581620005d357fe5b049050809150509392505050565b6200061081600660008581526020019081526020016000206000016200068560201b620034281790919060201c565b156200068157620006266200041b60201b60201c565b73ffffffffffffffffffffffffffffffffffffffff168173ffffffffffffffffffffffffffffffffffffffff16837f2f8788117e7eff1d82e926ec794901d17c78024a50270940304540a733656f0d60405160405180910390a45b5050565b6000620006b5836000018373ffffffffffffffffffffffffffffffffffffffff1660001b620006bd60201b60201c565b905092915050565b6000620006d183836200073760201b60201c565b6200072c57826000018290806001815401808255809150506001900390600052602060002001600090919091909150558260000180549050836001016000848152602001908152602001600020819055506001905062000731565b600090505b92915050565b600080836001016000848152602001908152602001600020541415905092915050565b6145d3806200076a6000396000f3fe608060405234801561001057600080fd5b50600436106102535760003560e01c80638da5cb5b11610146578063b97dd9e2116100c3578063ce5494bb11610087578063ce5494bb14610880578063cfecc657146108c4578063d547741f1461091c578063d89135cd1461096a578063f2fde38b14610988578063fa813589146109cc57610253565b8063b97dd9e2146107da578063be040fb0146107f8578063c5967c2614610802578063c828371e14610820578063ca15c8731461083e57610253565b8063a3e0b2951161010a578063a3e0b2951461071e578063a7f124941461073c578063a8d5fd651461076a578063a9cfc46e1461079e578063b8e2cf8e146107bc57610253565b80638da5cb5b146105d25780639010d07c1461060657806391d1485414610668578063961be391146106cc578063a217fddf1461070057610253565b80633154403b116101d4578063570ca73511610198578063570ca735146105145780635a0ce676146105485780635b7561791461058a5780635e02c51e14610594578063715018a6146105c857610253565b80633154403b1461043c57806336568abe1461045a5780634456eda2146104a857806346f13619146104c85780634fc5492f146104e657610253565b806323ced1351161021b57806323ced1351461032a578063248a9ca31461034857806329605e771461038a5780632c678c64146103ce5780632f2ff15d146103ee57610253565b80630f3a9f65146102585780630f9f2387146102865780631177cdf4146102a4578063132eeaa7146102d85780631ed241951461030c575b600080fd5b6102846004803603602081101561026e57600080fd5b81019080803590602001909291905050506109fa565b005b61028e610aaa565b6040518082815260200191505060405180910390f35b6102ac610ab0565b604051808273ffffffffffffffffffffffffffffffffffffffff16815260200191505060405180910390f35b6102e0610ad6565b604051808273ffffffffffffffffffffffffffffffffffffffff16815260200191505060405180910390f35b610314610afc565b6040518082815260200191505060405180910390f35b610332610b06565b6040518082815260200191505060405180910390f35b6103746004803603602081101561035e57600080fd5b8101908080359060200190929190505050610b0c565b6040518082815260200191505060405180910390f35b6103cc600480360360208110156103a057600080fd5b81019080803573ffffffffffffffffffffffffffffffffffffffff169060200190929190505050610b2c565b005b6103d6610c02565b60405180821515815260200191505060405180910390f35b61043a6004803603604081101561040457600080fd5b8101908080359060200190929190803573ffffffffffffffffffffffffffffffffffffffff169060200190929190505050610c15565b005b610444610c9f565b6040518082815260200191505060405180910390f35b6104a66004803603604081101561047057600080fd5b8101908080359060200190929190803573ffffffffffffffffffffffffffffffffffffffff169060200190929190505050610d74565b005b6104b0610e0d565b60405180821515815260200191505060405180910390f35b6104d0610e6c565b6040518082815260200191505060405180910390f35b610512600480360360208110156104fc57600080fd5b8101908080359060200190929190505050610e90565b005b61051c61141a565b604051808273ffffffffffffffffffffffffffffffffffffffff16815260200191505060405180910390f35b6105886004803603606081101561055e57600080fd5b81019080803590602001909291908035906020019092919080359060200190929190505050611444565b005b610592611504565b005b61059c611dc2565b604051808273ffffffffffffffffffffffffffffffffffffffff16815260200191505060405180910390f35b6105d0611de8565b005b6105da611f73565b604051808273ffffffffffffffffffffffffffffffffffffffff16815260200191505060405180910390f35b61063c6004803603604081101561061c57600080fd5b810190808035906020019092919080359060200190929190505050611f9d565b604051808273ffffffffffffffffffffffffffffffffffffffff16815260200191505060405180910390f35b6106b46004803603604081101561067e57600080fd5b8101908080359060200190929190803573ffffffffffffffffffffffffffffffffffffffff169060200190929190505050611fcf565b60405180821515815260200191505060405180910390f35b6106d4612001565b604051808273ffffffffffffffffffffffffffffffffffffffff16815260200191505060405180910390f35b610708612027565b6040518082815260200191505060405180910390f35b61072661202e565b6040518082815260200191505060405180910390f35b6107686004803603602081101561075257600080fd5b8101908080359060200190929190505050612034565b005b61077261217e565b604051808273ffffffffffffffffffffffffffffffffffffffff16815260200191505060405180910390f35b6107a66121a4565b6040518082815260200191505060405180910390f35b6107c46121aa565b6040518082815260200191505060405180910390f35b6107e26121dc565b6040518082815260200191505060405180910390f35b6108006121e6565b005b61080a61267e565b6040518082815260200191505060405180910390f35b6108286126b0565b6040518082815260200191505060405180910390f35b61086a6004803603602081101561085457600080fd5b81019080803590602001909291905050506126ba565b6040518082815260200191505060405180910390f35b6108c26004803603602081101561089657600080fd5b81019080803573ffffffffffffffffffffffffffffffffffffffff1690602001909291905050506126e1565b005b610906600480360360208110156108da57600080fd5b81019080803573ffffffffffffffffffffffffffffffffffffffff169060200190929190505050612f32565b6040518082815260200191505060405180910390f35b6109686004803603604081101561093257600080fd5b8101908080359060200190929190803573ffffffffffffffffffffffffffffffffffffffff169060200190929190505050612f4a565b005b610972612fd4565b6040518082815260200191505060405180910390f35b6109ca6004803603602081101561099e57600080fd5b81019080803573ffffffffffffffffffffffffffffffffffffffff169060200190929190505050612fda565b005b6109f8600480360360208110156109e257600080fd5b81019080803590602001909291905050506131ea565b005b3373ffffffffffffffffffffffffffffffffffffffff16600260009054906101000a900473ffffffffffffffffffffffffffffffffffffffff1673ffffffffffffffffffffffffffffffffffffffff1614610aa0576040517f08c379a00000000000000000000000000000000000000000000000000000000081526004018080602001828103825260248152602001806144c56024913960400191505060405180910390fd5b8060038190555050565b600e5481565b600b60009054906101000a900473ffffffffffffffffffffffffffffffffffffffff1681565b600a60009054906101000a900473ffffffffffffffffffffffffffffffffffffffff1681565b6000600354905090565b600d5481565b600060066000838152602001908152602001600020600201549050919050565b610b34613458565b73ffffffffffffffffffffffffffffffffffffffff16600160009054906101000a900473ffffffffffffffffffffffffffffffffffffffff1673ffffffffffffffffffffffffffffffffffffffff1614610bf6576040517f08c379a00000000000000000000000000000000000000000000000000000000081526004018080602001828103825260208152602001807f4f776e61626c653a2063616c6c6572206973206e6f7420746865206f776e657281525060200191505060405180910390fd5b610bff81613460565b50565b600760009054906101000a900460ff1681565b610c3c6006600084815260200190815260200160002060020154610c37613458565b611fcf565b610c91576040517f08c379a000000000000000000000000000000000000000000000000000000000815260040180806020018281038252602f815260200180614396602f913960400191505060405180910390fd5b610c9b8282613585565b5050565b600080600b60009054906101000a900473ffffffffffffffffffffffffffffffffffffffff1673ffffffffffffffffffffffffffffffffffffffff16630902f1ac6040518163ffffffff1660e01b815260040160606040518083038186803b158015610d0a57600080fd5b505afa158015610d1e573d6000803e3d6000fd5b505050506040513d6060811015610d3457600080fd5b8101908080519060200190929190805190602001909291908051906020019092919050505050509050806dffffffffffffffffffffffffffff1691505090565b610d7c613458565b73ffffffffffffffffffffffffffffffffffffffff168173ffffffffffffffffffffffffffffffffffffffff1614610dff576040517f08c379a000000000000000000000000000000000000000000000000000000000815260040180806020018281038252602f81526020018061456f602f913960400191505060405180910390fd5b610e098282613619565b5050565b6000600260009054906101000a900473ffffffffffffffffffffffffffffffffffffffff1673ffffffffffffffffffffffffffffffffffffffff16610e50613458565b73ffffffffffffffffffffffffffffffffffffffff1614905090565b7f78bec9d88e02d1f4b35ce23db7faa5ef3d17dec29002274bf73a61ccef4c8a0781565b610e986136ad565b15610eee576040517f08c379a00000000000000000000000000000000000000000000000000000000081526004018080602001828103825260268152602001806145136026913960400191505060405180910390fd5b610ef6613711565b15610f4c576040517f08c379a00000000000000000000000000000000000000000000000000000000081526004018080602001828103825260268152602001806145136026913960400191505060405180910390fd5b600760009054906101000a900460ff1615610fcf576040517f08c379a00000000000000000000000000000000000000000000000000000000081526004018080602001828103825260128152602001807f54726561737572793a206d69677261746564000000000000000000000000000081525060200191505060405180910390fd5b600454421015611047576040517f08c379a00000000000000000000000000000000000000000000000000000000081526004018080602001828103825260168152602001807f45706f63683a206e6f742073746172746564207965740000000000000000000081525060200191505060405180910390fd5b6000611074600a60009054906101000a900473ffffffffffffffffffffffffffffffffffffffff16613775565b9050600e5481111580156110885750600081115b6110fa576040517f08c379a000000000000000000000000000000000000000000000000000000000815260040180806020018281038252600f8152602001807f6d656c746572206e6f74206f70656e000000000000000000000000000000000081525060200191505060405180910390fd5b60008211611170576040517f08c379a00000000000000000000000000000000000000000000000000000000081526004018080602001828103825260128152602001807f63616e206e6f74207374616b65207a65726f000000000000000000000000000081525060200191505060405180910390fd5b600760019054906101000a900473ffffffffffffffffffffffffffffffffffffffff1673ffffffffffffffffffffffffffffffffffffffff166379cc679033846040518363ffffffff1660e01b8152600401808373ffffffffffffffffffffffffffffffffffffffff16815260200182815260200192505050600060405180830381600087803b15801561120357600080fd5b505af1158015611217573d6000803e3d6000fd5b50505050611230826010546138a290919063ffffffff16565b6010819055506000611293670de0b6b3a76400006112858561127786611269670de0b6b3a7640000600c5461335890919063ffffffff16565b6133de90919063ffffffff16565b61335890919063ffffffff16565b6133de90919063ffffffff16565b90506112aa816011546138a290919063ffffffff16565b60118190555061130281600f60003373ffffffffffffffffffffffffffffffffffffffff1673ffffffffffffffffffffffffffffffffffffffff168152602001908152602001600020546138a290919063ffffffff16565b600f60003373ffffffffffffffffffffffffffffffffffffffff1673ffffffffffffffffffffffffffffffffffffffff168152602001908152602001600020819055505050600160008043815260200190815260200160002060003273ffffffffffffffffffffffffffffffffffffffff1673ffffffffffffffffffffffffffffffffffffffff16815260200190815260200160002060006101000a81548160ff021916908315150217905550600160008043815260200190815260200160002060003373ffffffffffffffffffffffffffffffffffffffff1673ffffffffffffffffffffffffffffffffffffffff16815260200190815260200160002060006101000a81548160ff02191690831515021790555050565b6000600260009054906101000a900473ffffffffffffffffffffffffffffffffffffffff16905090565b3373ffffffffffffffffffffffffffffffffffffffff16600260009054906101000a900473ffffffffffffffffffffffffffffffffffffffff1673ffffffffffffffffffffffffffffffffffffffff16146114ea576040517f08c379a00000000000000000000000000000000000000000000000000000000081526004018080602001828103825260248152602001806144c56024913960400191505060405180910390fd5b82600d8190555081600c8190555080600e81905550505050565b600760009054906101000a900460ff1615611587576040517f08c379a00000000000000000000000000000000000000000000000000000000081526004018080602001828103825260128152602001807f54726561737572793a206d69677261746564000000000000000000000000000081525060200191505060405180910390fd5b61158f6136ad565b156115e5576040517f08c379a00000000000000000000000000000000000000000000000000000000081526004018080602001828103825260268152602001806145136026913960400191505060405180910390fd5b6115ed613711565b15611643576040517f08c379a00000000000000000000000000000000000000000000000000000000081526004018080602001828103825260268152602001806145136026913960400191505060405180910390fd5b6004544210156116bb576040517f08c379a00000000000000000000000000000000000000000000000000000000081526004018080602001828103825260168152602001807f45706f63683a206e6f742073746172746564207965740000000000000000000081525060200191505060405180910390fd5b6116c361267e565b421015611738576040517f08c379a00000000000000000000000000000000000000000000000000000000081526004018080602001828103825260128152602001807f45706f63683a206e6f7420616c6c6f776564000000000000000000000000000081525060200191505060405180910390fd5b3073ffffffffffffffffffffffffffffffffffffffff16600760019054906101000a900473ffffffffffffffffffffffffffffffffffffffff1673ffffffffffffffffffffffffffffffffffffffff1663570ca7356040518163ffffffff1660e01b815260040160206040518083038186803b1580156117b757600080fd5b505afa1580156117cb573d6000803e3d6000fd5b505050506040513d60208110156117e157600080fd5b810190808051906020019092919050505073ffffffffffffffffffffffffffffffffffffffff161480156118e257503073ffffffffffffffffffffffffffffffffffffffff16600860009054906101000a900473ffffffffffffffffffffffffffffffffffffffff1673ffffffffffffffffffffffffffffffffffffffff1663570ca7356040518163ffffffff1660e01b815260040160206040518083038186803b15801561188f57600080fd5b505afa1580156118a3573d6000803e3d6000fd5b505050506040513d60208110156118b957600080fd5b810190808051906020019092919050505073ffffffffffffffffffffffffffffffffffffffff16145b80156119bb57503073ffffffffffffffffffffffffffffffffffffffff16600960009054906101000a900473ffffffffffffffffffffffffffffffffffffffff1673ffffffffffffffffffffffffffffffffffffffff1663570ca7356040518163ffffffff1660e01b815260040160206040518083038186803b15801561196857600080fd5b505afa15801561197c573d6000803e3d6000fd5b505050506040513d602081101561199257600080fd5b810190808051906020019092919050505073ffffffffffffffffffffffffffffffffffffffff16145b611a2d576040517f08c379a000000000000000000000000000000000000000000000000000000000815260040180806020018281038252601e8152602001807f54726561737572793a206e656564206d6f7265207065726d697373696f6e000081525060200191505060405180910390fd5b611a3561392a565b6000611a62600a60009054906101000a900473ffffffffffffffffffffffffffffffffffffffff16613775565b9050600d54811015611a745750611cd4565b6000611a7e610c9f565b90506000611a97600c54846139b190919063ffffffff16565b90506000611ac3620f4240611ab5848661335890919063ffffffff16565b6133de90919063ffffffff16565b9050600760019054906101000a900473ffffffffffffffffffffffffffffffffffffffff1673ffffffffffffffffffffffffffffffffffffffff166340c10f1930836040518363ffffffff1660e01b8152600401808373ffffffffffffffffffffffffffffffffffffffff16815260200182815260200192505050602060405180830381600087803b158015611b5857600080fd5b505af1158015611b6c573d6000803e3d6000fd5b505050506040513d6020811015611b8257600080fd5b810190808051906020019092919050505050611c03600960009054906101000a900473ffffffffffffffffffffffffffffffffffffffff1682600760019054906101000a900473ffffffffffffffffffffffffffffffffffffffff1673ffffffffffffffffffffffffffffffffffffffff166139fb9092919063ffffffff16565b600960009054906101000a900473ffffffffffffffffffffffffffffffffffffffff1673ffffffffffffffffffffffffffffffffffffffff166397ffe1d7826040518263ffffffff1660e01b815260040180828152602001915050600060405180830381600087803b158015611c7857600080fd5b505af1158015611c8c573d6000803e3d6000fd5b505050507f03ca7276ab7799bf73fb79d27ff0610cd7049574f2508ef8445162833d439aea4282604051808381526020018281526020019250505060405180910390a1505050505b611cea60016005546138a290919063ffffffff16565b600581905550600160008043815260200190815260200160002060003273ffffffffffffffffffffffffffffffffffffffff1673ffffffffffffffffffffffffffffffffffffffff16815260200190815260200160002060006101000a81548160ff021916908315150217905550600160008043815260200190815260200160002060003373ffffffffffffffffffffffffffffffffffffffff1673ffffffffffffffffffffffffffffffffffffffff16815260200190815260200160002060006101000a81548160ff021916908315150217905550565b600960009054906101000a900473ffffffffffffffffffffffffffffffffffffffff1681565b611df0613458565b73ffffffffffffffffffffffffffffffffffffffff16600160009054906101000a900473ffffffffffffffffffffffffffffffffffffffff1673ffffffffffffffffffffffffffffffffffffffff1614611eb2576040517f08c379a00000000000000000000000000000000000000000000000000000000081526004018080602001828103825260208152602001807f4f776e61626c653a2063616c6c6572206973206e6f7420746865206f776e657281525060200191505060405180910390fd5b600073ffffffffffffffffffffffffffffffffffffffff16600160009054906101000a900473ffffffffffffffffffffffffffffffffffffffff1673ffffffffffffffffffffffffffffffffffffffff167f8be0079c531659141344cd1fd0a4f28419497f9722a3daafe3b4186f6b6457e060405160405180910390a36000600160006101000a81548173ffffffffffffffffffffffffffffffffffffffff021916908373ffffffffffffffffffffffffffffffffffffffff160217905550565b6000600160009054906101000a900473ffffffffffffffffffffffffffffffffffffffff16905090565b6000611fc78260066000868152602001908152602001600020600001613bc090919063ffffffff16565b905092915050565b6000611ff98260066000868152602001908152602001600020600001613bda90919063ffffffff16565b905092915050565b600760019054906101000a900473ffffffffffffffffffffffffffffffffffffffff1681565b6000801b81565b60115481565b61205e7f78bec9d88e02d1f4b35ce23db7faa5ef3d17dec29002274bf73a61ccef4c8a0733611fcf565b6120d0576040517f08c379a000000000000000000000000000000000000000000000000000000000815260040180806020018281038252600e8152602001807f4f6e6c7920455854454e53494f4e00000000000000000000000000000000000081525060200191505060405180910390fd5b600760019054906101000a900473ffffffffffffffffffffffffffffffffffffffff1673ffffffffffffffffffffffffffffffffffffffff166379cc679033836040518363ffffffff1660e01b8152600401808373ffffffffffffffffffffffffffffffffffffffff16815260200182815260200192505050600060405180830381600087803b15801561216357600080fd5b505af1158015612177573d6000803e3d6000fd5b5050505050565b600860009054906101000a900473ffffffffffffffffffffffffffffffffffffffff1681565b600c5481565b60006121d7600a60009054906101000a900473ffffffffffffffffffffffffffffffffffffffff16613775565b905090565b6000600554905090565b6121ee6136ad565b15612244576040517f08c379a00000000000000000000000000000000000000000000000000000000081526004018080602001828103825260268152602001806145136026913960400191505060405180910390fd5b61224c613711565b156122a2576040517f08c379a00000000000000000000000000000000000000000000000000000000081526004018080602001828103825260268152602001806145136026913960400191505060405180910390fd5b60006122cf600a60009054906101000a900473ffffffffffffffffffffffffffffffffffffffff16613775565b9050600c54811015612349576040517f08c379a00000000000000000000000000000000000000000000000000000000081526004018080602001828103825260128152602001807f7072696365206c6f776572207468616e2031000000000000000000000000000081525060200191505060405180910390fd5b6000600f60003373ffffffffffffffffffffffffffffffffffffffff1673ffffffffffffffffffffffffffffffffffffffff16815260200190815260200160002054116123fe576040517f08c379a000000000000000000000000000000000000000000000000000000000815260040180806020018281038252600b8152602001807f6561726e6564207a65726f00000000000000000000000000000000000000000081525060200191505060405180910390fd5b600760019054906101000a900473ffffffffffffffffffffffffffffffffffffffff1673ffffffffffffffffffffffffffffffffffffffff166340c10f1933600f60003373ffffffffffffffffffffffffffffffffffffffff1673ffffffffffffffffffffffffffffffffffffffff168152602001908152602001600020546040518363ffffffff1660e01b8152600401808373ffffffffffffffffffffffffffffffffffffffff16815260200182815260200192505050602060405180830381600087803b1580156124d057600080fd5b505af11580156124e4573d6000803e3d6000fd5b505050506040513d60208110156124fa57600080fd5b810190808051906020019092919050505050612560600f60003373ffffffffffffffffffffffffffffffffffffffff1673ffffffffffffffffffffffffffffffffffffffff168152602001908152602001600020546011546139b190919063ffffffff16565b6011819055506000600f60003373ffffffffffffffffffffffffffffffffffffffff1673ffffffffffffffffffffffffffffffffffffffff1681526020019081526020016000208190555050600160008043815260200190815260200160002060003273ffffffffffffffffffffffffffffffffffffffff1673ffffffffffffffffffffffffffffffffffffffff16815260200190815260200160002060006101000a81548160ff021916908315150217905550600160008043815260200190815260200160002060003373ffffffffffffffffffffffffffffffffffffffff1673ffffffffffffffffffffffffffffffffffffffff16815260200190815260200160002060006101000a81548160ff021916908315150217905550565b60006126ab61269a60035460055461335890919063ffffffff16565b6004546138a290919063ffffffff16565b905090565b6000600454905090565b60006126da60066000848152602001908152602001600020600001613c0a565b9050919050565b3373ffffffffffffffffffffffffffffffffffffffff16600260009054906101000a900473ffffffffffffffffffffffffffffffffffffffff1673ffffffffffffffffffffffffffffffffffffffff1614612787576040517f08c379a00000000000000000000000000000000000000000000000000000000081526004018080602001828103825260248152602001806144c56024913960400191505060405180910390fd5b3073ffffffffffffffffffffffffffffffffffffffff16600760019054906101000a900473ffffffffffffffffffffffffffffffffffffffff1673ffffffffffffffffffffffffffffffffffffffff1663570ca7356040518163ffffffff1660e01b815260040160206040518083038186803b15801561280657600080fd5b505afa15801561281a573d6000803e3d6000fd5b505050506040513d602081101561283057600080fd5b810190808051906020019092919050505073ffffffffffffffffffffffffffffffffffffffff1614801561293157503073ffffffffffffffffffffffffffffffffffffffff16600860009054906101000a900473ffffffffffffffffffffffffffffffffffffffff1673ffffffffffffffffffffffffffffffffffffffff1663570ca7356040518163ffffffff1660e01b815260040160206040518083038186803b1580156128de57600080fd5b505afa1580156128f2573d6000803e3d6000fd5b505050506040513d602081101561290857600080fd5b810190808051906020019092919050505073ffffffffffffffffffffffffffffffffffffffff16145b8015612a0a57503073ffffffffffffffffffffffffffffffffffffffff16600960009054906101000a900473ffffffffffffffffffffffffffffffffffffffff1673ffffffffffffffffffffffffffffffffffffffff1663570ca7356040518163ffffffff1660e01b815260040160206040518083038186803b1580156129b757600080fd5b505afa1580156129cb573d6000803e3d6000fd5b505050506040513d60208110156129e157600080fd5b810190808051906020019092919050505073ffffffffffffffffffffffffffffffffffffffff16145b612a7c576040517f08c379a000000000000000000000000000000000000000000000000000000000815260040180806020018281038252601e8152602001807f54726561737572793a206e656564206d6f7265207065726d697373696f6e000081525060200191505060405180910390fd5b600760009054906101000a900460ff1615612aff576040517f08c379a00000000000000000000000000000000000000000000000000000000081526004018080602001828103825260128152602001807f54726561737572793a206d69677261746564000000000000000000000000000081525060200191505060405180910390fd5b600760019054906101000a900473ffffffffffffffffffffffffffffffffffffffff1673ffffffffffffffffffffffffffffffffffffffff166329605e77826040518263ffffffff1660e01b8152600401808273ffffffffffffffffffffffffffffffffffffffff168152602001915050600060405180830381600087803b158015612b8a57600080fd5b505af1158015612b9e573d6000803e3d6000fd5b50505050600760019054906101000a900473ffffffffffffffffffffffffffffffffffffffff1673ffffffffffffffffffffffffffffffffffffffff1663f2fde38b826040518263ffffffff1660e01b8152600401808273ffffffffffffffffffffffffffffffffffffffff168152602001915050600060405180830381600087803b158015612c2d57600080fd5b505af1158015612c41573d6000803e3d6000fd5b50505050600960009054906101000a900473ffffffffffffffffffffffffffffffffffffffff1673ffffffffffffffffffffffffffffffffffffffff166329605e77826040518263ffffffff1660e01b8152600401808273ffffffffffffffffffffffffffffffffffffffff168152602001915050600060405180830381600087803b158015612cd057600080fd5b505af1158015612ce4573d6000803e3d6000fd5b50505050600960009054906101000a900473ffffffffffffffffffffffffffffffffffffffff1673ffffffffffffffffffffffffffffffffffffffff1663f2fde38b826040518263ffffffff1660e01b8152600401808273ffffffffffffffffffffffffffffffffffffffff168152602001915050600060405180830381600087803b158015612d7357600080fd5b505af1158015612d87573d6000803e3d6000fd5b50505050600860009054906101000a900473ffffffffffffffffffffffffffffffffffffffff1673ffffffffffffffffffffffffffffffffffffffff166329605e77826040518263ffffffff1660e01b8152600401808273ffffffffffffffffffffffffffffffffffffffff168152602001915050600060405180830381600087803b158015612e1657600080fd5b505af1158015612e2a573d6000803e3d6000fd5b50505050600860009054906101000a900473ffffffffffffffffffffffffffffffffffffffff1673ffffffffffffffffffffffffffffffffffffffff1663f2fde38b826040518263ffffffff1660e01b8152600401808273ffffffffffffffffffffffffffffffffffffffff168152602001915050600060405180830381600087803b158015612eb957600080fd5b505af1158015612ecd573d6000803e3d6000fd5b505050506001600760006101000a81548160ff0219169083151502179055508073ffffffffffffffffffffffffffffffffffffffff167f0caca70b66aed56b0630989a049110023c5a3f37e0ea4b6ce96fc747663f3ebc60405160405180910390a250565b600f6020528060005260406000206000915090505481565b612f716006600084815260200190815260200160002060020154612f6c613458565b611fcf565b612fc6576040517f08c379a00000000000000000000000000000000000000000000000000000000081526004018080602001828103825260308152602001806144116030913960400191505060405180910390fd5b612fd08282613619565b5050565b60105481565b612fe2613458565b73ffffffffffffffffffffffffffffffffffffffff16600160009054906101000a900473ffffffffffffffffffffffffffffffffffffffff1673ffffffffffffffffffffffffffffffffffffffff16146130a4576040517f08c379a00000000000000000000000000000000000000000000000000000000081526004018080602001828103825260208152602001807f4f776e61626c653a2063616c6c6572206973206e6f7420746865206f776e657281525060200191505060405180910390fd5b600073ffffffffffffffffffffffffffffffffffffffff168173ffffffffffffffffffffffffffffffffffffffff16141561312a576040517f08c379a00000000000000000000000000000000000000000000000000000000081526004018080602001828103825260268152602001806143c56026913960400191505060405180910390fd5b8073ffffffffffffffffffffffffffffffffffffffff16600160009054906101000a900473ffffffffffffffffffffffffffffffffffffffff1673ffffffffffffffffffffffffffffffffffffffff167f8be0079c531659141344cd1fd0a4f28419497f9722a3daafe3b4186f6b6457e060405160405180910390a380600160006101000a81548173ffffffffffffffffffffffffffffffffffffffff021916908373ffffffffffffffffffffffffffffffffffffffff16021790555050565b6132147f78bec9d88e02d1f4b35ce23db7faa5ef3d17dec29002274bf73a61ccef4c8a0733611fcf565b613286576040517f08c379a000000000000000000000000000000000000000000000000000000000815260040180806020018281038252600e8152602001807f4f6e6c7920455854454e53494f4e00000000000000000000000000000000000081525060200191505060405180910390fd5b600760019054906101000a900473ffffffffffffffffffffffffffffffffffffffff1673ffffffffffffffffffffffffffffffffffffffff166340c10f1933836040518363ffffffff1660e01b8152600401808373ffffffffffffffffffffffffffffffffffffffff16815260200182815260200192505050602060405180830381600087803b15801561331957600080fd5b505af115801561332d573d6000803e3d6000fd5b505050506040513d602081101561334357600080fd5b81019080805190602001909291905050505050565b60008083141561336b57600090506133d8565b600082840290508284828161337c57fe5b04146133d3576040517f08c379a000000000000000000000000000000000000000000000000000000000815260040180806020018281038252602181526020018061446e6021913960400191505060405180910390fd5b809150505b92915050565b600061342083836040518060400160405280601a81526020017f536166654d6174683a206469766973696f6e206279207a65726f000000000000815250613c1f565b905092915050565b6000613450836000018373ffffffffffffffffffffffffffffffffffffffff1660001b613ce5565b905092915050565b600033905090565b600073ffffffffffffffffffffffffffffffffffffffff168173ffffffffffffffffffffffffffffffffffffffff1614156134e6576040517f08c379a000000000000000000000000000000000000000000000000000000000815260040180806020018281038252602d815260200180614441602d913960400191505060405180910390fd5b8073ffffffffffffffffffffffffffffffffffffffff16600073ffffffffffffffffffffffffffffffffffffffff167f74da04524d50c64947f5dd5381ef1a4dca5cba8ed1d816243f9e48aa0b5617ed60405160405180910390a380600260006101000a81548173ffffffffffffffffffffffffffffffffffffffff021916908373ffffffffffffffffffffffffffffffffffffffff16021790555050565b6135ad816006600085815260200190815260200160002060000161342890919063ffffffff16565b15613615576135ba613458565b73ffffffffffffffffffffffffffffffffffffffff168173ffffffffffffffffffffffffffffffffffffffff16837f2f8788117e7eff1d82e926ec794901d17c78024a50270940304540a733656f0d60405160405180910390a45b5050565b6136418160066000858152602001908152602001600020600001613d5590919063ffffffff16565b156136a95761364e613458565b73ffffffffffffffffffffffffffffffffffffffff168173ffffffffffffffffffffffffffffffffffffffff16837ff6391f5c32d9c69d2a47ea670b442974b53935d1edc7fd64eb21e047a839171b60405160405180910390a45b5050565b600080600043815260200190815260200160002060003273ffffffffffffffffffffffffffffffffffffffff1673ffffffffffffffffffffffffffffffffffffffff16815260200190815260200160002060009054906101000a900460ff16905090565b600080600043815260200190815260200160002060003373ffffffffffffffffffffffffffffffffffffffff1673ffffffffffffffffffffffffffffffffffffffff16815260200190815260200160002060009054906101000a900460ff16905090565b60008173ffffffffffffffffffffffffffffffffffffffff16633ddac953600760019054906101000a900473ffffffffffffffffffffffffffffffffffffffff16670de0b6b3a76400006040518363ffffffff1660e01b8152600401808373ffffffffffffffffffffffffffffffffffffffff1681526020018281526020019250505060206040518083038186803b15801561381057600080fd5b505afa92505050801561384457506040513d602081101561383057600080fd5b810190808051906020019092919050505060015b613899576040517f08c379a000000000000000000000000000000000000000000000000000000000815260040180806020018281038252603681526020018061448f6036913960400191505060405180910390fd5b80915050919050565b600080828401905083811015613920576040517f08c379a000000000000000000000000000000000000000000000000000000000815260040180806020018281038252601b8152602001807f536166654d6174683a206164646974696f6e206f766572666c6f77000000000081525060200191505060405180910390fd5b8091505092915050565b600a60009054906101000a900473ffffffffffffffffffffffffffffffffffffffff1673ffffffffffffffffffffffffffffffffffffffff1663a2e620456040518163ffffffff1660e01b8152600401600060405180830381600087803b15801561399457600080fd5b505af19250505080156139a5575060015b6139ae576139af565b5b565b60006139f383836040518060400160405280601e81526020017f536166654d6174683a207375627472616374696f6e206f766572666c6f770000815250613d85565b905092915050565b6000811480613ac9575060008373ffffffffffffffffffffffffffffffffffffffff1663dd62ed3e30856040518363ffffffff1660e01b8152600401808373ffffffffffffffffffffffffffffffffffffffff1681526020018273ffffffffffffffffffffffffffffffffffffffff1681526020019250505060206040518083038186803b158015613a8c57600080fd5b505afa158015613aa0573d6000803e3d6000fd5b505050506040513d6020811015613ab657600080fd5b8101908080519060200190929190505050145b613b1e576040517f08c379a00000000000000000000000000000000000000000000000000000000081526004018080602001828103825260368152602001806145396036913960400191505060405180910390fd5b613bbb8363095ea7b360e01b8484604051602401808373ffffffffffffffffffffffffffffffffffffffff16815260200182815260200192505050604051602081830303815290604052907bffffffffffffffffffffffffffffffffffffffffffffffffffffffff19166020820180517bffffffffffffffffffffffffffffffffffffffffffffffffffffffff8381831617835250505050613e45565b505050565b6000613bcf8360000183613f34565b60001c905092915050565b6000613c02836000018373ffffffffffffffffffffffffffffffffffffffff1660001b613fb7565b905092915050565b6000613c1882600001613fda565b9050919050565b60008083118290613ccb576040517f08c379a00000000000000000000000000000000000000000000000000000000081526004018080602001828103825283818151815260200191508051906020019080838360005b83811015613c90578082015181840152602081019050613c75565b50505050905090810190601f168015613cbd5780820380516001836020036101000a031916815260200191505b509250505060405180910390fd5b506000838581613cd757fe5b049050809150509392505050565b6000613cf18383613fb7565b613d4a578260000182908060018154018082558091505060019003906000526020600020016000909190919091505582600001805490508360010160008481526020019081526020016000208190555060019050613d4f565b600090505b92915050565b6000613d7d836000018373ffffffffffffffffffffffffffffffffffffffff1660001b613feb565b905092915050565b6000838311158290613e32576040517f08c379a00000000000000000000000000000000000000000000000000000000081526004018080602001828103825283818151815260200191508051906020019080838360005b83811015613df7578082015181840152602081019050613ddc565b50505050905090810190601f168015613e245780820380516001836020036101000a031916815260200191505b509250505060405180910390fd5b5060008385039050809150509392505050565b6060613ea7826040518060400160405280602081526020017f5361666545524332303a206c6f772d6c6576656c2063616c6c206661696c65648152508573ffffffffffffffffffffffffffffffffffffffff166140d39092919063ffffffff16565b9050600081511115613f2f57808060200190516020811015613ec857600080fd5b8101908080519060200190929190505050613f2e576040517f08c379a000000000000000000000000000000000000000000000000000000000815260040180806020018281038252602a8152602001806144e9602a913960400191505060405180910390fd5b5b505050565b600081836000018054905011613f95576040517f08c379a00000000000000000000000000000000000000000000000000000000081526004018080602001828103825260228152602001806143746022913960400191505060405180910390fd5b826000018281548110613fa457fe5b9060005260206000200154905092915050565b600080836001016000848152602001908152602001600020541415905092915050565b600081600001805490509050919050565b600080836001016000848152602001908152602001600020549050600081146140c7576000600182039050600060018660000180549050039050600086600001828154811061403657fe5b906000526020600020015490508087600001848154811061405357fe5b906000526020600020018190555060018301876001016000838152602001908152602001600020819055508660000180548061408b57fe5b600190038181906000526020600020016000905590558660010160008781526020019081526020016000206000905560019450505050506140cd565b60009150505b92915050565b60606140e284846000856140eb565b90509392505050565b606082471015614146576040517f08c379a00000000000000000000000000000000000000000000000000000000081526004018080602001828103825260268152602001806143eb6026913960400191505060405180910390fd5b61414f85614294565b6141c1576040517f08c379a000000000000000000000000000000000000000000000000000000000815260040180806020018281038252601d8152602001807f416464726573733a2063616c6c20746f206e6f6e2d636f6e747261637400000081525060200191505060405180910390fd5b600060608673ffffffffffffffffffffffffffffffffffffffff1685876040518082805190602001908083835b6020831061421157805182526020820191506020810190506020830392506141ee565b6001836020036101000a03801982511681845116808217855250505050505090500191505060006040518083038185875af1925050503d8060008114614273576040519150601f19603f3d011682016040523d82523d6000602084013e614278565b606091505b50915091506142888282866142a7565b92505050949350505050565b600080823b905060008111915050919050565b606083156142b75782905061436c565b6000835111156142ca5782518084602001fd5b816040517f08c379a00000000000000000000000000000000000000000000000000000000081526004018080602001828103825283818151815260200191508051906020019080838360005b83811015614331578082015181840152602081019050614316565b50505050905090810190601f16801561435e5780820380516001836020036101000a031916815260200191505b509250505060405180910390fd5b939250505056fe456e756d657261626c655365743a20696e646578206f7574206f6620626f756e6473416363657373436f6e74726f6c3a2073656e646572206d75737420626520616e2061646d696e20746f206772616e744f776e61626c653a206e6577206f776e657220697320746865207a65726f2061646472657373416464726573733a20696e73756666696369656e742062616c616e636520666f722063616c6c416363657373436f6e74726f6c3a2073656e646572206d75737420626520616e2061646d696e20746f207265766f6b656f70657261746f723a207a65726f206164647265737320676976656e20666f72206e6577206f70657261746f72536166654d6174683a206d756c7469706c69636174696f6e206f766572666c6f7754726561737572793a206661696c656420746f20636f6e73756c7420636173682070726963652066726f6d20746865206f7261636c656f70657261746f723a2063616c6c6572206973206e6f7420746865206f70657261746f725361666545524332303a204552433230206f7065726174696f6e20646964206e6f742073756363656564436f6e747261637447756172643a206f6e6520626c6f636b2c206f6e652066756e6374696f6e5361666545524332303a20617070726f76652066726f6d206e6f6e2d7a65726f20746f206e6f6e2d7a65726f20616c6c6f77616e6365416363657373436f6e74726f6c3a2063616e206f6e6c792072656e6f756e636520726f6c657320666f722073656c66a2646970667358221220f84badec9fe9126afc852965763082851937281103f0ba5d397adcfab84798c464736f6c634300060c0033536166654d6174683a206d756c7469706c69636174696f6e206f766572666c6f77",
  "immutableReferences": {},
  "source": "pragma solidity ^0.6.0;\r\n\r\nimport \"@openzeppelin/contracts/math/Math.sol\";\r\nimport \"@openzeppelin/contracts/access/AccessControl.sol\";\r\nimport \"@openzeppelin/contracts/token/ERC20/IERC20.sol\";\r\nimport \"@openzeppelin/contracts/token/ERC20/SafeERC20.sol\";\r\nimport \"@openzeppelin/contracts/utils/ReentrancyGuard.sol\";\r\n\r\nimport \"./interfaces/IOracle.sol\";\r\nimport \"./interfaces/IBoardroom.sol\";\r\nimport \"./interfaces/IUCashAsset.sol\";\r\nimport \"./interfaces/IUniswapV2Pair.sol\";\r\nimport \"./lib/Babylonian.sol\";\r\nimport \"./lib/FixedPoint.sol\";\r\nimport \"./lib/Safe112.sol\";\r\nimport \"./owner/Operator.sol\";\r\nimport \"./utils/Epoch.sol\";\r\nimport \"./utils/ContractGuard.sol\";\r\n\r\ncontract Treasury is ContractGuard, Epoch,AccessControl{\r\n    using FixedPoint for *;\r\n    using SafeERC20 for IERC20;\r\n    using Address for address;\r\n    using SafeMath for uint256;\r\n    using Safe112 for uint112;\r\n\r\n    \r\n\r\n\r\n    // ========== FLAGS\r\n    bool public migrated = false;\r\n\r\n    // ========== CORE\r\n    address public cash;\r\n    address public share;\r\n    address public boardroom;\r\n    address public seigniorageOracle;\r\n    address public ubcusdtPool;\r\n\r\n    // ========== PARAMS\r\n    uint256 public cashPriceOne;\r\n    uint256 public cashPriceCeiling;\r\n    uint256 public cashPriceFloor;\r\n    bytes32 public constant EXTENSION = keccak256(\"EXTENSION\");\r\n\r\n    // Contractionary Policy Earned\r\n    mapping(address=>uint256) public CPEarned;\r\n    uint256 public totalBurned ;\r\n    uint256 public pendingMintedUBC;\r\n\r\n   \r\n    constructor(\r\n        address _cash,\r\n        address _share,\r\n        address _seigniorageOracle,\r\n        address _boardroom,\r\n        uint256 _startTime,\r\n        address _UBCUSDTPool\r\n    ) public Epoch(1 days, _startTime, 0) {\r\n        cash = _cash;\r\n        share = _share;\r\n        seigniorageOracle = _seigniorageOracle;\r\n        boardroom = _boardroom;\r\n        ubcusdtPool = _UBCUSDTPool;\r\n        cashPriceOne = 10**6;\r\n        cashPriceCeiling = uint256(105).mul(cashPriceOne).div(10**2);\r\n        cashPriceFloor = uint256(95).mul(cashPriceOne).div(10**2);\r\n        _setupRole(DEFAULT_ADMIN_ROLE,msg.sender);\r\n    }\r\n\r\n\r\n    modifier checkMigration {\r\n        require(!migrated, 'Treasury: migrated');\r\n\r\n        _;\r\n    }\r\n\r\n    modifier checkOperator {\r\n        require(\r\n            IUCashAsset(cash).operator() == address(this) &&\r\n                IUCashAsset(share).operator() == address(this) &&\r\n                Operator(boardroom).operator() == address(this),\r\n            \"Treasury: need more permission\"\r\n        );\r\n        _;\r\n    }\r\n\r\n    function ExtensionMint(uint256 amount) public {\r\n         require(hasRole(EXTENSION,msg.sender),\"Only EXTENSION\");\r\n          IUCashAsset(cash).mint(msg.sender,amount);\r\n\r\n    }\r\n    function ExtensionBurn(uint256 amount) public {\r\n        require(hasRole(EXTENSION,msg.sender),\"Only EXTENSION\");\r\n        IUCashAsset(cash).burnFrom(msg.sender,amount);\r\n    }\r\n\r\n\r\n    function setParams(uint256 ceiling, uint256 one,uint256 floor) public onlyOperator{\r\n        cashPriceCeiling = ceiling;\r\n        cashPriceOne = one;\r\n        cashPriceFloor = floor;\r\n    }\r\n\r\n\r\n    function getSeigniorageOraclePrice() public view returns (uint256) {\r\n        return _getCashPrice(seigniorageOracle);\r\n    }\r\n\r\n    function _getCashPrice(address oracle) internal view returns (uint256) {\r\n        try IOracle(oracle).consult(cash, 1e18) returns (uint256 price) {\r\n            return price;\r\n        } catch {\r\n            revert(\"Treasury: failed to consult cash price from the oracle\");\r\n        }\r\n    }\r\n\r\n    function _updateCashPrice() internal { \r\n        try IOracle(seigniorageOracle).update()  {} catch {}\r\n    }\r\n    \r\n\r\n    function migrate(address target) public onlyOperator checkOperator {\r\n        require(!migrated, 'Treasury: migrated');\r\n\r\n        // cash\r\n        Operator(cash).transferOperator(target);\r\n        Operator(cash).transferOwnership(target);\r\n\r\n        Operator(boardroom).transferOperator(target);\r\n        Operator(boardroom).transferOwnership(target);\r\n    \r\n        // share\r\n        Operator(share).transferOperator(target);\r\n        Operator(share).transferOwnership(target);\r\n\r\n        migrated = true;\r\n        emit Migration(target);\r\n    }\r\n\r\n    function melter(uint256 amount) public  onlyOneBlock  checkMigration checkStartTime {\r\n        uint256 cashPrice = _getCashPrice(seigniorageOracle);\r\n        require(cashPrice <= cashPriceFloor && cashPrice>0,\"melter not open\");\r\n        require(amount>0,\"can not stake zero\");\r\n        IUCashAsset(cash).burnFrom(msg.sender,amount);\r\n        totalBurned = totalBurned.add(amount);\r\n\r\n        uint256 pendingAmount = cashPriceOne.mul(1e18).div(cashPrice).mul(amount).div(1e18);\r\n        pendingMintedUBC = pendingMintedUBC.add(pendingAmount);\r\n        CPEarned[msg.sender] = CPEarned[msg.sender].add(pendingAmount);\r\n    }\r\n\r\n    function redeem() public onlyOneBlock {\r\n        uint256 cashPrice = _getCashPrice(seigniorageOracle);\r\n        require(cashPrice >= cashPriceOne,\"price lower than 1\");\r\n        require(CPEarned[msg.sender]>0,\"earned zero\");\r\n        IUCashAsset(cash).mint(msg.sender,CPEarned[msg.sender]);\r\n        pendingMintedUBC = pendingMintedUBC.sub(CPEarned[msg.sender]);\r\n        CPEarned[msg.sender] = 0;\r\n    }\r\n\r\n    function getTotalPooledUBC() public view returns(uint256){\r\n        (uint112 poolUBCAmount,,) = IUniswapV2Pair(ubcusdtPool).getReserves();\r\n        return uint256(poolUBCAmount);\r\n    }\r\n\r\n   function allocateSeigniorage()\r\n        external\r\n        checkMigration\r\n        onlyOneBlock\r\n        checkStartTime\r\n        checkEpoch\r\n        checkOperator\r\n    {\r\n        _updateCashPrice();\r\n        uint256 cashPrice = _getCashPrice(seigniorageOracle);\r\n        if (cashPrice < cashPriceCeiling) {\r\n           return ;\r\n        }\r\n        uint256 poolUBCAmount= getTotalPooledUBC();\r\n        uint256 percentage = cashPrice.sub(cashPriceOne);\r\n        uint256 seigniorage = poolUBCAmount.mul(percentage).div(1e6);\r\n        IUCashAsset(cash).mint(address(this), seigniorage);\r\n        IERC20(cash).safeApprove(boardroom, seigniorage);\r\n        IBoardroom(boardroom).allocateSeigniorage(seigniorage);\r\n        emit BoardroomFunded(now, seigniorage);\r\n    }\r\n\r\n    event Migration(address indexed target);\r\n    event BoardroomFunded(uint256 timestamp, uint256 seigniorage);\r\n}\r\n\r\n\r\n",
  "sourcePath": "C:/Users/Administrator/UCash/contracts/Treasury.sol",
  "compiler": {
    "name": "solc",
    "version": "0.6.12+commit.27d51765.Emscripten.clang"
  },
  "schemaVersion": "3.3.3",
  "updatedAt": "2020-12-25T12:34:15.534Z",
  "networkType": "ethereum",
  "devdoc": {
    "kind": "dev",
    "methods": {
      "getRoleAdmin(bytes32)": {
        "details": "Returns the admin role that controls `role`. See {grantRole} and {revokeRole}. To change a role's admin, use {_setRoleAdmin}."
      },
      "getRoleMember(bytes32,uint256)": {
        "details": "Returns one of the accounts that have `role`. `index` must be a value between 0 and {getRoleMemberCount}, non-inclusive. Role bearers are not sorted in any particular way, and their ordering may change at any point. WARNING: When using {getRoleMember} and {getRoleMemberCount}, make sure you perform all queries on the same block. See the following https://forum.openzeppelin.com/t/iterating-over-elements-on-enumerableset-in-openzeppelin-contracts/2296[forum post] for more information."
      },
      "getRoleMemberCount(bytes32)": {
        "details": "Returns the number of accounts that have `role`. Can be used together with {getRoleMember} to enumerate all bearers of a role."
      },
      "grantRole(bytes32,address)": {
        "details": "Grants `role` to `account`. If `account` had not been already granted `role`, emits a {RoleGranted} event. Requirements: - the caller must have ``role``'s admin role."
      },
      "hasRole(bytes32,address)": {
        "details": "Returns `true` if `account` has been granted `role`."
      },
      "owner()": {
        "details": "Returns the address of the current owner."
      },
      "renounceOwnership()": {
        "details": "Leaves the contract without owner. It will not be possible to call `onlyOwner` functions anymore. Can only be called by the current owner. NOTE: Renouncing ownership will leave the contract without an owner, thereby removing any functionality that is only available to the owner."
      },
      "renounceRole(bytes32,address)": {
        "details": "Revokes `role` from the calling account. Roles are often managed via {grantRole} and {revokeRole}: this function's purpose is to provide a mechanism for accounts to lose their privileges if they are compromised (such as when a trusted device is misplaced). If the calling account had been granted `role`, emits a {RoleRevoked} event. Requirements: - the caller must be `account`."
      },
      "revokeRole(bytes32,address)": {
        "details": "Revokes `role` from `account`. If `account` had been granted `role`, emits a {RoleRevoked} event. Requirements: - the caller must have ``role``'s admin role."
      },
      "transferOwnership(address)": {
        "details": "Transfers ownership of the contract to a new account (`newOwner`). Can only be called by the current owner."
      }
    },
    "version": 1
  },
  "userdoc": {
    "kind": "user",
    "methods": {},
    "version": 1
  }
}